{
	"contracts/FundMe.sol": {
		"FundMe": {
			"abi": [
				{
					"inputs": [
						{
							"internalType": "address",
							"name": "",
							"type": "address"
						}
					],
					"name": "addressToAmountFunded",
					"outputs": [
						{
							"internalType": "uint256",
							"name": "",
							"type": "uint256"
						}
					],
					"stateMutability": "view",
					"type": "function"
				},
				{
					"inputs": [],
					"name": "fund",
					"outputs": [],
					"stateMutability": "payable",
					"type": "function"
				},
				{
					"inputs": [
						{
							"internalType": "uint256",
							"name": "",
							"type": "uint256"
						}
					],
					"name": "funders",
					"outputs": [
						{
							"internalType": "address",
							"name": "",
							"type": "address"
						}
					],
					"stateMutability": "view",
					"type": "function"
				},
				{
					"inputs": [],
					"name": "minimumUSD",
					"outputs": [
						{
							"internalType": "uint256",
							"name": "",
							"type": "uint256"
						}
					],
					"stateMutability": "view",
					"type": "function"
				},
				{
					"inputs": [],
					"name": "withdraw",
					"outputs": [],
					"stateMutability": "nonpayable",
					"type": "function"
				}
			],
			"devdoc": {
				"kind": "dev",
				"methods": {},
				"version": 1
			},
			"evm": {
				"assembly": "    /* \"contracts/FundMe.sol\":93:901  contract FundMe{... */\n  mstore(0x40, 0x80)\n    /* \"contracts/FundMe.sol\":184:193  50 * 1e18 */\n  0x02b5e3af16b1880000\n    /* \"contracts/FundMe.sol\":156:193  uint256 public minimumUSD = 50 * 1e18 */\n  0x00\n  sstore\n    /* \"contracts/FundMe.sol\":93:901  contract FundMe{... */\n  callvalue\n  dup1\n  iszero\n  tag_1\n  jumpi\n  0x00\n  dup1\n  revert\ntag_1:\n  pop\n  dataSize(sub_0)\n  dup1\n  dataOffset(sub_0)\n  0x00\n  codecopy\n  0x00\n  return\nstop\n\nsub_0: assembly {\n        /* \"contracts/FundMe.sol\":93:901  contract FundMe{... */\n      mstore(0x40, 0x80)\n      jumpi(tag_1, lt(calldatasize, 0x04))\n      shr(0xe0, calldataload(0x00))\n      dup1\n      0x3430a88c\n      eq\n      tag_2\n      jumpi\n      dup1\n      0x3ccfd60b\n      eq\n      tag_3\n      jumpi\n      dup1\n      0x3e47d6f3\n      eq\n      tag_4\n      jumpi\n      dup1\n      0xb60d4288\n      eq\n      tag_5\n      jumpi\n      dup1\n      0xdc0d3dff\n      eq\n      tag_6\n      jumpi\n    tag_1:\n      0x00\n      dup1\n      revert\n        /* \"contracts/FundMe.sol\":156:193  uint256 public minimumUSD = 50 * 1e18 */\n    tag_2:\n      callvalue\n      dup1\n      iszero\n      tag_7\n      jumpi\n      0x00\n      dup1\n      revert\n    tag_7:\n      pop\n      tag_8\n      tag_9\n      jump\t// in\n    tag_8:\n      mload(0x40)\n      tag_10\n      swap2\n      swap1\n      tag_11\n      jump\t// in\n    tag_10:\n      mload(0x40)\n      dup1\n      swap2\n      sub\n      swap1\n      return\n        /* \"contracts/FundMe.sol\":755:898  function withdraw() public{... */\n    tag_3:\n      callvalue\n      dup1\n      iszero\n      tag_12\n      jumpi\n      0x00\n      dup1\n      revert\n    tag_12:\n      pop\n      tag_13\n      tag_14\n      jump\t// in\n    tag_13:\n      stop\n        /* \"contracts/FundMe.sol\":233:289  mapping(address => uint256) public addressToAmountFunded */\n    tag_4:\n      callvalue\n      dup1\n      iszero\n      tag_15\n      jumpi\n      0x00\n      dup1\n      revert\n    tag_15:\n      pop\n      tag_16\n      0x04\n      dup1\n      calldatasize\n      sub\n      dup2\n      add\n      swap1\n      tag_17\n      swap2\n      swap1\n      tag_18\n      jump\t// in\n    tag_17:\n      tag_19\n      jump\t// in\n    tag_16:\n      mload(0x40)\n      tag_20\n      swap2\n      swap1\n      tag_11\n      jump\t// in\n    tag_20:\n      mload(0x40)\n      dup1\n      swap2\n      sub\n      swap1\n      return\n        /* \"contracts/FundMe.sol\":298:747  function fund() public payable{... */\n    tag_5:\n      tag_21\n      tag_22\n      jump\t// in\n    tag_21:\n      stop\n        /* \"contracts/FundMe.sol\":200:224  address[] public funders */\n    tag_6:\n      callvalue\n      dup1\n      iszero\n      tag_23\n      jumpi\n      0x00\n      dup1\n      revert\n    tag_23:\n      pop\n      tag_24\n      0x04\n      dup1\n      calldatasize\n      sub\n      dup2\n      add\n      swap1\n      tag_25\n      swap2\n      swap1\n      tag_26\n      jump\t// in\n    tag_25:\n      tag_27\n      jump\t// in\n    tag_24:\n      mload(0x40)\n      tag_28\n      swap2\n      swap1\n      tag_29\n      jump\t// in\n    tag_28:\n      mload(0x40)\n      dup1\n      swap2\n      sub\n      swap1\n      return\n        /* \"contracts/FundMe.sol\":156:193  uint256 public minimumUSD = 50 * 1e18 */\n    tag_9:\n      sload(0x00)\n      dup2\n      jump\t// out\n        /* \"contracts/FundMe.sol\":755:898  function withdraw() public{... */\n    tag_14:\n        /* \"contracts/FundMe.sol\":796:815  uint256 funderIndex */\n      0x00\n        /* \"contracts/FundMe.sol\":792:891  for(uint256 funderIndex = 0; funderIndex < funders.length; funderIndex++){... */\n    tag_31:\n        /* \"contracts/FundMe.sol\":835:842  funders */\n      0x01\n        /* \"contracts/FundMe.sol\":835:849  funders.length */\n      dup1\n      sload\n      swap1\n      pop\n        /* \"contracts/FundMe.sol\":821:832  funderIndex */\n      dup2\n        /* \"contracts/FundMe.sol\":821:849  funderIndex < funders.length */\n      lt\n        /* \"contracts/FundMe.sol\":792:891  for(uint256 funderIndex = 0; funderIndex < funders.length; funderIndex++){... */\n      iszero\n      tag_32\n      jumpi\n        /* \"contracts/FundMe.sol\":851:864  funderIndex++ */\n      dup1\n      dup1\n      tag_34\n      swap1\n      tag_35\n      jump\t// in\n    tag_34:\n      swap2\n      pop\n      pop\n        /* \"contracts/FundMe.sol\":792:891  for(uint256 funderIndex = 0; funderIndex < funders.length; funderIndex++){... */\n      jump(tag_31)\n    tag_32:\n      pop\n        /* \"contracts/FundMe.sol\":755:898  function withdraw() public{... */\n      jump\t// out\n        /* \"contracts/FundMe.sol\":233:289  mapping(address => uint256) public addressToAmountFunded */\n    tag_19:\n      mstore(0x20, 0x02)\n      dup1\n      0x00\n      mstore\n      keccak256(0x00, 0x40)\n      0x00\n      swap2\n      pop\n      swap1\n      pop\n      sload\n      dup2\n      jump\t// out\n        /* \"contracts/FundMe.sol\":298:747  function fund() public payable{... */\n    tag_22:\n        /* \"contracts/FundMe.sol\":492:502  minimumUSD */\n      sload(0x00)\n        /* \"contracts/FundMe.sol\":459:488  msg.value.getConversionRate() */\n      tag_37\n        /* \"contracts/FundMe.sol\":459:468  msg.value */\n      callvalue\n        /* \"contracts/FundMe.sol\":459:486  msg.value.getConversionRate */\n      tag_38\n        /* \"contracts/FundMe.sol\":459:488  msg.value.getConversionRate() */\n      jump\t// in\n    tag_37:\n        /* \"contracts/FundMe.sol\":459:502  msg.value.getConversionRate() >= minimumUSD */\n      lt\n      iszero\n        /* \"contracts/FundMe.sol\":451:525  require(msg.value.getConversionRate() >= minimumUSD, \"Didn't send enough\") */\n      tag_39\n      jumpi\n      mload(0x40)\n      0x08c379a000000000000000000000000000000000000000000000000000000000\n      dup2\n      mstore\n      0x04\n      add\n      tag_40\n      swap1\n      tag_41\n      jump\t// in\n    tag_40:\n      mload(0x40)\n      dup1\n      swap2\n      sub\n      swap1\n      revert\n    tag_39:\n        /* \"contracts/FundMe.sol\":659:666  funders */\n      0x01\n        /* \"contracts/FundMe.sol\":672:682  msg.sender */\n      caller\n        /* \"contracts/FundMe.sol\":659:683  funders.push(msg.sender) */\n      swap1\n      dup1\n      0x01\n      dup2\n      sload\n      add\n      dup1\n      dup3\n      sstore\n      dup1\n      swap2\n      pop\n      pop\n      0x01\n      swap1\n      sub\n      swap1\n      0x00\n      mstore\n      keccak256(0x00, 0x20)\n      add\n      0x00\n      swap1\n      swap2\n      swap1\n      swap2\n      swap1\n      swap2\n      0x0100\n      exp\n      dup2\n      sload\n      dup2\n      0xffffffffffffffffffffffffffffffffffffffff\n      mul\n      not\n      and\n      swap1\n      dup4\n      0xffffffffffffffffffffffffffffffffffffffff\n      and\n      mul\n      or\n      swap1\n      sstore\n      pop\n        /* \"contracts/FundMe.sol\":730:739  msg.value */\n      callvalue\n        /* \"contracts/FundMe.sol\":694:715  addressToAmountFunded */\n      0x02\n        /* \"contracts/FundMe.sol\":694:727  addressToAmountFunded[msg.sender] */\n      0x00\n        /* \"contracts/FundMe.sol\":716:726  msg.sender */\n      caller\n        /* \"contracts/FundMe.sol\":694:727  addressToAmountFunded[msg.sender] */\n      0xffffffffffffffffffffffffffffffffffffffff\n      and\n      0xffffffffffffffffffffffffffffffffffffffff\n      and\n      dup2\n      mstore\n      0x20\n      add\n      swap1\n      dup2\n      mstore\n      0x20\n      add\n      0x00\n      keccak256\n        /* \"contracts/FundMe.sol\":694:739  addressToAmountFunded[msg.sender] = msg.value */\n      dup2\n      swap1\n      sstore\n      pop\n        /* \"contracts/FundMe.sol\":298:747  function fund() public payable{... */\n      jump\t// out\n        /* \"contracts/FundMe.sol\":200:224  address[] public funders */\n    tag_27:\n      0x01\n      dup2\n      dup2\n      sload\n      dup2\n      lt\n      tag_43\n      jumpi\n      0x00\n      dup1\n      revert\n    tag_43:\n      swap1\n      0x00\n      mstore\n      keccak256(0x00, 0x20)\n      add\n      0x00\n      swap2\n      pop\n      sload\n      swap1\n      0x0100\n      exp\n      swap1\n      div\n      0xffffffffffffffffffffffffffffffffffffffff\n      and\n      dup2\n      jump\t// out\n        /* \"contracts/PriceConverter.sol\":708:931  function getConversionRate(uint256 ethAmount) internal view returns (uint256) {... */\n    tag_38:\n        /* \"contracts/PriceConverter.sol\":777:784  uint256 */\n      0x00\n        /* \"contracts/PriceConverter.sol\":797:813  uint256 ethPrice */\n      dup1\n        /* \"contracts/PriceConverter.sol\":816:826  getPrice() */\n      tag_46\n        /* \"contracts/PriceConverter.sol\":816:824  getPrice */\n      tag_47\n        /* \"contracts/PriceConverter.sol\":816:826  getPrice() */\n      jump\t// in\n    tag_46:\n        /* \"contracts/PriceConverter.sol\":797:826  uint256 ethPrice = getPrice() */\n      swap1\n      pop\n        /* \"contracts/PriceConverter.sol\":837:859  uint256 ethAmountInUsd */\n      0x00\n        /* \"contracts/PriceConverter.sol\":887:891  1e18 */\n      0x0de0b6b3a7640000\n        /* \"contracts/PriceConverter.sol\":874:883  ethAmount */\n      dup5\n        /* \"contracts/PriceConverter.sol\":863:871  ethPrice */\n      dup4\n        /* \"contracts/PriceConverter.sol\":863:883  ethPrice * ethAmount */\n      tag_48\n      swap2\n      swap1\n      tag_49\n      jump\t// in\n    tag_48:\n        /* \"contracts/PriceConverter.sol\":862:891  (ethPrice * ethAmount) / 1e18 */\n      tag_50\n      swap2\n      swap1\n      tag_51\n      jump\t// in\n    tag_50:\n        /* \"contracts/PriceConverter.sol\":837:891  uint256 ethAmountInUsd = (ethPrice * ethAmount) / 1e18 */\n      swap1\n      pop\n        /* \"contracts/PriceConverter.sol\":909:923  ethAmountInUsd */\n      dup1\n        /* \"contracts/PriceConverter.sol\":902:923  return ethAmountInUsd */\n      swap3\n      pop\n      pop\n      pop\n        /* \"contracts/PriceConverter.sol\":708:931  function getConversionRate(uint256 ethAmount) internal view returns (uint256) {... */\n      swap2\n      swap1\n      pop\n      jump\t// out\n        /* \"contracts/PriceConverter.sol\":179:700  function getPrice() internal view returns(uint256){... */\n    tag_47:\n        /* \"contracts/PriceConverter.sol\":221:228  uint256 */\n      0x00\n        /* \"contracts/PriceConverter.sol\":376:407  AggregatorV3Interface priceFeed */\n      dup1\n        /* \"contracts/PriceConverter.sol\":432:474  0x8A753747A1Fa494EC906cE90E9f37563A8AF630e */\n      0x8a753747a1fa494ec906ce90e9f37563a8af630e\n        /* \"contracts/PriceConverter.sol\":376:475  AggregatorV3Interface priceFeed = AggregatorV3Interface(0x8A753747A1Fa494EC906cE90E9f37563A8AF630e) */\n      swap1\n      pop\n        /* \"contracts/PriceConverter.sol\":488:500  int256 price */\n      0x00\n        /* \"contracts/PriceConverter.sol\":507:516  priceFeed */\n      dup2\n        /* \"contracts/PriceConverter.sol\":507:532  priceFeed.latestRoundData */\n      0xffffffffffffffffffffffffffffffffffffffff\n      and\n      0xfeaf968c\n        /* \"contracts/PriceConverter.sol\":507:534  priceFeed.latestRoundData() */\n      mload(0x40)\n      dup2\n      0xffffffff\n      and\n      0xe0\n      shl\n      dup2\n      mstore\n      0x04\n      add\n      0xa0\n      mload(0x40)\n      dup1\n      dup4\n      sub\n      dup2\n      dup7\n      dup1\n      extcodesize\n      iszero\n      dup1\n      iszero\n      tag_53\n      jumpi\n      0x00\n      dup1\n      revert\n    tag_53:\n      pop\n      gas\n      staticcall\n      iszero\n      dup1\n      iszero\n      tag_55\n      jumpi\n      returndatasize\n      0x00\n      dup1\n      returndatacopy\n      revert(0x00, returndatasize)\n    tag_55:\n      pop\n      pop\n      pop\n      pop\n      mload(0x40)\n      returndatasize\n      not(0x1f)\n      0x1f\n      dup3\n      add\n      and\n      dup3\n      add\n      dup1\n      0x40\n      mstore\n      pop\n      dup2\n      add\n      swap1\n      tag_56\n      swap2\n      swap1\n      tag_57\n      jump\t// in\n    tag_56:\n        /* \"contracts/PriceConverter.sol\":486:534  (,int256 price,,,) = priceFeed.latestRoundData() */\n      pop\n      pop\n      pop\n      swap2\n      pop\n      pop\n        /* \"contracts/PriceConverter.sol\":622:626  1e10 */\n      0x02540be400\n        /* \"contracts/PriceConverter.sol\":614:619  price */\n      dup2\n        /* \"contracts/PriceConverter.sol\":614:626  price * 1e10 */\n      tag_58\n      swap2\n      swap1\n      tag_59\n      jump\t// in\n    tag_58:\n        /* \"contracts/PriceConverter.sol\":599:627  return uint256(price * 1e10) */\n      swap3\n      pop\n      pop\n      pop\n        /* \"contracts/PriceConverter.sol\":179:700  function getPrice() internal view returns(uint256){... */\n      swap1\n      jump\t// out\n        /* \"#utility.yul\":7:84   */\n    tag_60:\n        /* \"#utility.yul\":44:51   */\n      0x00\n        /* \"#utility.yul\":73:78   */\n      dup2\n        /* \"#utility.yul\":62:78   */\n      swap1\n      pop\n        /* \"#utility.yul\":7:84   */\n      swap2\n      swap1\n      pop\n      jump\t// out\n        /* \"#utility.yul\":90:208   */\n    tag_61:\n        /* \"#utility.yul\":177:201   */\n      tag_87\n        /* \"#utility.yul\":195:200   */\n      dup2\n        /* \"#utility.yul\":177:201   */\n      tag_60\n      jump\t// in\n    tag_87:\n        /* \"#utility.yul\":172:175   */\n      dup3\n        /* \"#utility.yul\":165:202   */\n      mstore\n        /* \"#utility.yul\":90:208   */\n      pop\n      pop\n      jump\t// out\n        /* \"#utility.yul\":214:436   */\n    tag_11:\n        /* \"#utility.yul\":307:311   */\n      0x00\n        /* \"#utility.yul\":345:347   */\n      0x20\n        /* \"#utility.yul\":334:343   */\n      dup3\n        /* \"#utility.yul\":330:348   */\n      add\n        /* \"#utility.yul\":322:348   */\n      swap1\n      pop\n        /* \"#utility.yul\":358:429   */\n      tag_89\n        /* \"#utility.yul\":426:427   */\n      0x00\n        /* \"#utility.yul\":415:424   */\n      dup4\n        /* \"#utility.yul\":411:428   */\n      add\n        /* \"#utility.yul\":402:408   */\n      dup5\n        /* \"#utility.yul\":358:429   */\n      tag_61\n      jump\t// in\n    tag_89:\n        /* \"#utility.yul\":214:436   */\n      swap3\n      swap2\n      pop\n      pop\n      jump\t// out\n        /* \"#utility.yul\":523:640   */\n    tag_63:\n        /* \"#utility.yul\":632:633   */\n      0x00\n        /* \"#utility.yul\":629:630   */\n      dup1\n        /* \"#utility.yul\":622:634   */\n      revert\n        /* \"#utility.yul\":769:895   */\n    tag_65:\n        /* \"#utility.yul\":806:813   */\n      0x00\n        /* \"#utility.yul\":846:888   */\n      0xffffffffffffffffffffffffffffffffffffffff\n        /* \"#utility.yul\":839:844   */\n      dup3\n        /* \"#utility.yul\":835:889   */\n      and\n        /* \"#utility.yul\":824:889   */\n      swap1\n      pop\n        /* \"#utility.yul\":769:895   */\n      swap2\n      swap1\n      pop\n      jump\t// out\n        /* \"#utility.yul\":901:997   */\n    tag_66:\n        /* \"#utility.yul\":938:945   */\n      0x00\n        /* \"#utility.yul\":967:991   */\n      tag_95\n        /* \"#utility.yul\":985:990   */\n      dup3\n        /* \"#utility.yul\":967:991   */\n      tag_65\n      jump\t// in\n    tag_95:\n        /* \"#utility.yul\":956:991   */\n      swap1\n      pop\n        /* \"#utility.yul\":901:997   */\n      swap2\n      swap1\n      pop\n      jump\t// out\n        /* \"#utility.yul\":1003:1125   */\n    tag_67:\n        /* \"#utility.yul\":1076:1100   */\n      tag_97\n        /* \"#utility.yul\":1094:1099   */\n      dup2\n        /* \"#utility.yul\":1076:1100   */\n      tag_66\n      jump\t// in\n    tag_97:\n        /* \"#utility.yul\":1069:1074   */\n      dup2\n        /* \"#utility.yul\":1066:1101   */\n      eq\n        /* \"#utility.yul\":1056:1119   */\n      tag_98\n      jumpi\n        /* \"#utility.yul\":1115:1116   */\n      0x00\n        /* \"#utility.yul\":1112:1113   */\n      dup1\n        /* \"#utility.yul\":1105:1117   */\n      revert\n        /* \"#utility.yul\":1056:1119   */\n    tag_98:\n        /* \"#utility.yul\":1003:1125   */\n      pop\n      jump\t// out\n        /* \"#utility.yul\":1131:1270   */\n    tag_68:\n        /* \"#utility.yul\":1177:1182   */\n      0x00\n        /* \"#utility.yul\":1215:1221   */\n      dup2\n        /* \"#utility.yul\":1202:1222   */\n      calldataload\n        /* \"#utility.yul\":1193:1222   */\n      swap1\n      pop\n        /* \"#utility.yul\":1231:1264   */\n      tag_100\n        /* \"#utility.yul\":1258:1263   */\n      dup2\n        /* \"#utility.yul\":1231:1264   */\n      tag_67\n      jump\t// in\n    tag_100:\n        /* \"#utility.yul\":1131:1270   */\n      swap3\n      swap2\n      pop\n      pop\n      jump\t// out\n        /* \"#utility.yul\":1276:1605   */\n    tag_18:\n        /* \"#utility.yul\":1335:1341   */\n      0x00\n        /* \"#utility.yul\":1384:1386   */\n      0x20\n        /* \"#utility.yul\":1372:1381   */\n      dup3\n        /* \"#utility.yul\":1363:1370   */\n      dup5\n        /* \"#utility.yul\":1359:1382   */\n      sub\n        /* \"#utility.yul\":1355:1387   */\n      slt\n        /* \"#utility.yul\":1352:1471   */\n      iszero\n      tag_102\n      jumpi\n        /* \"#utility.yul\":1390:1469   */\n      tag_103\n      tag_63\n      jump\t// in\n    tag_103:\n        /* \"#utility.yul\":1352:1471   */\n    tag_102:\n        /* \"#utility.yul\":1510:1511   */\n      0x00\n        /* \"#utility.yul\":1535:1588   */\n      tag_104\n        /* \"#utility.yul\":1580:1587   */\n      dup5\n        /* \"#utility.yul\":1571:1577   */\n      dup3\n        /* \"#utility.yul\":1560:1569   */\n      dup6\n        /* \"#utility.yul\":1556:1578   */\n      add\n        /* \"#utility.yul\":1535:1588   */\n      tag_68\n      jump\t// in\n    tag_104:\n        /* \"#utility.yul\":1525:1588   */\n      swap2\n      pop\n        /* \"#utility.yul\":1481:1598   */\n      pop\n        /* \"#utility.yul\":1276:1605   */\n      swap3\n      swap2\n      pop\n      pop\n      jump\t// out\n        /* \"#utility.yul\":1611:1733   */\n    tag_69:\n        /* \"#utility.yul\":1684:1708   */\n      tag_106\n        /* \"#utility.yul\":1702:1707   */\n      dup2\n        /* \"#utility.yul\":1684:1708   */\n      tag_60\n      jump\t// in\n    tag_106:\n        /* \"#utility.yul\":1677:1682   */\n      dup2\n        /* \"#utility.yul\":1674:1709   */\n      eq\n        /* \"#utility.yul\":1664:1727   */\n      tag_107\n      jumpi\n        /* \"#utility.yul\":1723:1724   */\n      0x00\n        /* \"#utility.yul\":1720:1721   */\n      dup1\n        /* \"#utility.yul\":1713:1725   */\n      revert\n        /* \"#utility.yul\":1664:1727   */\n    tag_107:\n        /* \"#utility.yul\":1611:1733   */\n      pop\n      jump\t// out\n        /* \"#utility.yul\":1739:1878   */\n    tag_70:\n        /* \"#utility.yul\":1785:1790   */\n      0x00\n        /* \"#utility.yul\":1823:1829   */\n      dup2\n        /* \"#utility.yul\":1810:1830   */\n      calldataload\n        /* \"#utility.yul\":1801:1830   */\n      swap1\n      pop\n        /* \"#utility.yul\":1839:1872   */\n      tag_109\n        /* \"#utility.yul\":1866:1871   */\n      dup2\n        /* \"#utility.yul\":1839:1872   */\n      tag_69\n      jump\t// in\n    tag_109:\n        /* \"#utility.yul\":1739:1878   */\n      swap3\n      swap2\n      pop\n      pop\n      jump\t// out\n        /* \"#utility.yul\":1884:2213   */\n    tag_26:\n        /* \"#utility.yul\":1943:1949   */\n      0x00\n        /* \"#utility.yul\":1992:1994   */\n      0x20\n        /* \"#utility.yul\":1980:1989   */\n      dup3\n        /* \"#utility.yul\":1971:1978   */\n      dup5\n        /* \"#utility.yul\":1967:1990   */\n      sub\n        /* \"#utility.yul\":1963:1995   */\n      slt\n        /* \"#utility.yul\":1960:2079   */\n      iszero\n      tag_111\n      jumpi\n        /* \"#utility.yul\":1998:2077   */\n      tag_112\n      tag_63\n      jump\t// in\n    tag_112:\n        /* \"#utility.yul\":1960:2079   */\n    tag_111:\n        /* \"#utility.yul\":2118:2119   */\n      0x00\n        /* \"#utility.yul\":2143:2196   */\n      tag_113\n        /* \"#utility.yul\":2188:2195   */\n      dup5\n        /* \"#utility.yul\":2179:2185   */\n      dup3\n        /* \"#utility.yul\":2168:2177   */\n      dup6\n        /* \"#utility.yul\":2164:2186   */\n      add\n        /* \"#utility.yul\":2143:2196   */\n      tag_70\n      jump\t// in\n    tag_113:\n        /* \"#utility.yul\":2133:2196   */\n      swap2\n      pop\n        /* \"#utility.yul\":2089:2206   */\n      pop\n        /* \"#utility.yul\":1884:2213   */\n      swap3\n      swap2\n      pop\n      pop\n      jump\t// out\n        /* \"#utility.yul\":2219:2337   */\n    tag_71:\n        /* \"#utility.yul\":2306:2330   */\n      tag_115\n        /* \"#utility.yul\":2324:2329   */\n      dup2\n        /* \"#utility.yul\":2306:2330   */\n      tag_66\n      jump\t// in\n    tag_115:\n        /* \"#utility.yul\":2301:2304   */\n      dup3\n        /* \"#utility.yul\":2294:2331   */\n      mstore\n        /* \"#utility.yul\":2219:2337   */\n      pop\n      pop\n      jump\t// out\n        /* \"#utility.yul\":2343:2565   */\n    tag_29:\n        /* \"#utility.yul\":2436:2440   */\n      0x00\n        /* \"#utility.yul\":2474:2476   */\n      0x20\n        /* \"#utility.yul\":2463:2472   */\n      dup3\n        /* \"#utility.yul\":2459:2477   */\n      add\n        /* \"#utility.yul\":2451:2477   */\n      swap1\n      pop\n        /* \"#utility.yul\":2487:2558   */\n      tag_117\n        /* \"#utility.yul\":2555:2556   */\n      0x00\n        /* \"#utility.yul\":2544:2553   */\n      dup4\n        /* \"#utility.yul\":2540:2557   */\n      add\n        /* \"#utility.yul\":2531:2537   */\n      dup5\n        /* \"#utility.yul\":2487:2558   */\n      tag_71\n      jump\t// in\n    tag_117:\n        /* \"#utility.yul\":2343:2565   */\n      swap3\n      swap2\n      pop\n      pop\n      jump\t// out\n        /* \"#utility.yul\":2571:2751   */\n    tag_72:\n        /* \"#utility.yul\":2619:2696   */\n      0x4e487b7100000000000000000000000000000000000000000000000000000000\n        /* \"#utility.yul\":2616:2617   */\n      0x00\n        /* \"#utility.yul\":2609:2697   */\n      mstore\n        /* \"#utility.yul\":2716:2720   */\n      0x11\n        /* \"#utility.yul\":2713:2714   */\n      0x04\n        /* \"#utility.yul\":2706:2721   */\n      mstore\n        /* \"#utility.yul\":2740:2744   */\n      0x24\n        /* \"#utility.yul\":2737:2738   */\n      0x00\n        /* \"#utility.yul\":2730:2745   */\n      revert\n        /* \"#utility.yul\":2757:2990   */\n    tag_35:\n        /* \"#utility.yul\":2796:2799   */\n      0x00\n        /* \"#utility.yul\":2819:2843   */\n      tag_120\n        /* \"#utility.yul\":2837:2842   */\n      dup3\n        /* \"#utility.yul\":2819:2843   */\n      tag_60\n      jump\t// in\n    tag_120:\n        /* \"#utility.yul\":2810:2843   */\n      swap2\n      pop\n        /* \"#utility.yul\":2865:2931   */\n      0xffffffffffffffffffffffffffffffffffffffffffffffffffffffffffffffff\n        /* \"#utility.yul\":2858:2863   */\n      dup3\n        /* \"#utility.yul\":2855:2932   */\n      eq\n        /* \"#utility.yul\":2852:2955   */\n      iszero\n      tag_121\n      jumpi\n        /* \"#utility.yul\":2935:2953   */\n      tag_122\n      tag_72\n      jump\t// in\n    tag_122:\n        /* \"#utility.yul\":2852:2955   */\n    tag_121:\n        /* \"#utility.yul\":2982:2983   */\n      0x01\n        /* \"#utility.yul\":2975:2980   */\n      dup3\n        /* \"#utility.yul\":2971:2984   */\n      add\n        /* \"#utility.yul\":2964:2984   */\n      swap1\n      pop\n        /* \"#utility.yul\":2757:2990   */\n      swap2\n      swap1\n      pop\n      jump\t// out\n        /* \"#utility.yul\":2996:3165   */\n    tag_73:\n        /* \"#utility.yul\":3080:3091   */\n      0x00\n        /* \"#utility.yul\":3114:3120   */\n      dup3\n        /* \"#utility.yul\":3109:3112   */\n      dup3\n        /* \"#utility.yul\":3102:3121   */\n      mstore\n        /* \"#utility.yul\":3154:3158   */\n      0x20\n        /* \"#utility.yul\":3149:3152   */\n      dup3\n        /* \"#utility.yul\":3145:3159   */\n      add\n        /* \"#utility.yul\":3130:3159   */\n      swap1\n      pop\n        /* \"#utility.yul\":2996:3165   */\n      swap3\n      swap2\n      pop\n      pop\n      jump\t// out\n        /* \"#utility.yul\":3171:3339   */\n    tag_74:\n        /* \"#utility.yul\":3311:3331   */\n      0x4469646e27742073656e6420656e6f7567680000000000000000000000000000\n        /* \"#utility.yul\":3307:3308   */\n      0x00\n        /* \"#utility.yul\":3299:3305   */\n      dup3\n        /* \"#utility.yul\":3295:3309   */\n      add\n        /* \"#utility.yul\":3288:3332   */\n      mstore\n        /* \"#utility.yul\":3171:3339   */\n      pop\n      jump\t// out\n        /* \"#utility.yul\":3345:3711   */\n    tag_75:\n        /* \"#utility.yul\":3487:3490   */\n      0x00\n        /* \"#utility.yul\":3508:3575   */\n      tag_126\n        /* \"#utility.yul\":3572:3574   */\n      0x12\n        /* \"#utility.yul\":3567:3570   */\n      dup4\n        /* \"#utility.yul\":3508:3575   */\n      tag_73\n      jump\t// in\n    tag_126:\n        /* \"#utility.yul\":3501:3575   */\n      swap2\n      pop\n        /* \"#utility.yul\":3584:3677   */\n      tag_127\n        /* \"#utility.yul\":3673:3676   */\n      dup3\n        /* \"#utility.yul\":3584:3677   */\n      tag_74\n      jump\t// in\n    tag_127:\n        /* \"#utility.yul\":3702:3704   */\n      0x20\n        /* \"#utility.yul\":3697:3700   */\n      dup3\n        /* \"#utility.yul\":3693:3705   */\n      add\n        /* \"#utility.yul\":3686:3705   */\n      swap1\n      pop\n        /* \"#utility.yul\":3345:3711   */\n      swap2\n      swap1\n      pop\n      jump\t// out\n        /* \"#utility.yul\":3717:4136   */\n    tag_41:\n        /* \"#utility.yul\":3883:3887   */\n      0x00\n        /* \"#utility.yul\":3921:3923   */\n      0x20\n        /* \"#utility.yul\":3910:3919   */\n      dup3\n        /* \"#utility.yul\":3906:3924   */\n      add\n        /* \"#utility.yul\":3898:3924   */\n      swap1\n      pop\n        /* \"#utility.yul\":3970:3979   */\n      dup2\n        /* \"#utility.yul\":3964:3968   */\n      dup2\n        /* \"#utility.yul\":3960:3980   */\n      sub\n        /* \"#utility.yul\":3956:3957   */\n      0x00\n        /* \"#utility.yul\":3945:3954   */\n      dup4\n        /* \"#utility.yul\":3941:3958   */\n      add\n        /* \"#utility.yul\":3934:3981   */\n      mstore\n        /* \"#utility.yul\":3998:4129   */\n      tag_129\n        /* \"#utility.yul\":4124:4128   */\n      dup2\n        /* \"#utility.yul\":3998:4129   */\n      tag_75\n      jump\t// in\n    tag_129:\n        /* \"#utility.yul\":3990:4129   */\n      swap1\n      pop\n        /* \"#utility.yul\":3717:4136   */\n      swap2\n      swap1\n      pop\n      jump\t// out\n        /* \"#utility.yul\":4142:4490   */\n    tag_49:\n        /* \"#utility.yul\":4182:4189   */\n      0x00\n        /* \"#utility.yul\":4205:4225   */\n      tag_131\n        /* \"#utility.yul\":4223:4224   */\n      dup3\n        /* \"#utility.yul\":4205:4225   */\n      tag_60\n      jump\t// in\n    tag_131:\n        /* \"#utility.yul\":4200:4225   */\n      swap2\n      pop\n        /* \"#utility.yul\":4239:4259   */\n      tag_132\n        /* \"#utility.yul\":4257:4258   */\n      dup4\n        /* \"#utility.yul\":4239:4259   */\n      tag_60\n      jump\t// in\n    tag_132:\n        /* \"#utility.yul\":4234:4259   */\n      swap3\n      pop\n        /* \"#utility.yul\":4427:4428   */\n      dup2\n        /* \"#utility.yul\":4359:4425   */\n      0xffffffffffffffffffffffffffffffffffffffffffffffffffffffffffffffff\n        /* \"#utility.yul\":4355:4429   */\n      div\n        /* \"#utility.yul\":4352:4353   */\n      dup4\n        /* \"#utility.yul\":4349:4430   */\n      gt\n        /* \"#utility.yul\":4344:4345   */\n      dup3\n        /* \"#utility.yul\":4337:4346   */\n      iszero\n        /* \"#utility.yul\":4330:4347   */\n      iszero\n        /* \"#utility.yul\":4326:4431   */\n      and\n        /* \"#utility.yul\":4323:4454   */\n      iszero\n      tag_133\n      jumpi\n        /* \"#utility.yul\":4434:4452   */\n      tag_134\n      tag_72\n      jump\t// in\n    tag_134:\n        /* \"#utility.yul\":4323:4454   */\n    tag_133:\n        /* \"#utility.yul\":4482:4483   */\n      dup3\n        /* \"#utility.yul\":4479:4480   */\n      dup3\n        /* \"#utility.yul\":4475:4484   */\n      mul\n        /* \"#utility.yul\":4464:4484   */\n      swap1\n      pop\n        /* \"#utility.yul\":4142:4490   */\n      swap3\n      swap2\n      pop\n      pop\n      jump\t// out\n        /* \"#utility.yul\":4496:4676   */\n    tag_76:\n        /* \"#utility.yul\":4544:4621   */\n      0x4e487b7100000000000000000000000000000000000000000000000000000000\n        /* \"#utility.yul\":4541:4542   */\n      0x00\n        /* \"#utility.yul\":4534:4622   */\n      mstore\n        /* \"#utility.yul\":4641:4645   */\n      0x12\n        /* \"#utility.yul\":4638:4639   */\n      0x04\n        /* \"#utility.yul\":4631:4646   */\n      mstore\n        /* \"#utility.yul\":4665:4669   */\n      0x24\n        /* \"#utility.yul\":4662:4663   */\n      0x00\n        /* \"#utility.yul\":4655:4670   */\n      revert\n        /* \"#utility.yul\":4682:4867   */\n    tag_51:\n        /* \"#utility.yul\":4722:4723   */\n      0x00\n        /* \"#utility.yul\":4739:4759   */\n      tag_137\n        /* \"#utility.yul\":4757:4758   */\n      dup3\n        /* \"#utility.yul\":4739:4759   */\n      tag_60\n      jump\t// in\n    tag_137:\n        /* \"#utility.yul\":4734:4759   */\n      swap2\n      pop\n        /* \"#utility.yul\":4773:4793   */\n      tag_138\n        /* \"#utility.yul\":4791:4792   */\n      dup4\n        /* \"#utility.yul\":4773:4793   */\n      tag_60\n      jump\t// in\n    tag_138:\n        /* \"#utility.yul\":4768:4793   */\n      swap3\n      pop\n        /* \"#utility.yul\":4812:4813   */\n      dup3\n        /* \"#utility.yul\":4802:4837   */\n      tag_139\n      jumpi\n        /* \"#utility.yul\":4817:4835   */\n      tag_140\n      tag_76\n      jump\t// in\n    tag_140:\n        /* \"#utility.yul\":4802:4837   */\n    tag_139:\n        /* \"#utility.yul\":4859:4860   */\n      dup3\n        /* \"#utility.yul\":4856:4857   */\n      dup3\n        /* \"#utility.yul\":4852:4861   */\n      div\n        /* \"#utility.yul\":4847:4861   */\n      swap1\n      pop\n        /* \"#utility.yul\":4682:4867   */\n      swap3\n      swap2\n      pop\n      pop\n      jump\t// out\n        /* \"#utility.yul\":4873:4978   */\n    tag_77:\n        /* \"#utility.yul\":4909:4916   */\n      0x00\n        /* \"#utility.yul\":4949:4971   */\n      0xffffffffffffffffffff\n        /* \"#utility.yul\":4942:4947   */\n      dup3\n        /* \"#utility.yul\":4938:4972   */\n      and\n        /* \"#utility.yul\":4927:4972   */\n      swap1\n      pop\n        /* \"#utility.yul\":4873:4978   */\n      swap2\n      swap1\n      pop\n      jump\t// out\n        /* \"#utility.yul\":4984:5104   */\n    tag_78:\n        /* \"#utility.yul\":5056:5079   */\n      tag_143\n        /* \"#utility.yul\":5073:5078   */\n      dup2\n        /* \"#utility.yul\":5056:5079   */\n      tag_77\n      jump\t// in\n    tag_143:\n        /* \"#utility.yul\":5049:5054   */\n      dup2\n        /* \"#utility.yul\":5046:5080   */\n      eq\n        /* \"#utility.yul\":5036:5098   */\n      tag_144\n      jumpi\n        /* \"#utility.yul\":5094:5095   */\n      0x00\n        /* \"#utility.yul\":5091:5092   */\n      dup1\n        /* \"#utility.yul\":5084:5096   */\n      revert\n        /* \"#utility.yul\":5036:5098   */\n    tag_144:\n        /* \"#utility.yul\":4984:5104   */\n      pop\n      jump\t// out\n        /* \"#utility.yul\":5110:5251   */\n    tag_79:\n        /* \"#utility.yul\":5166:5171   */\n      0x00\n        /* \"#utility.yul\":5197:5203   */\n      dup2\n        /* \"#utility.yul\":5191:5204   */\n      mload\n        /* \"#utility.yul\":5182:5204   */\n      swap1\n      pop\n        /* \"#utility.yul\":5213:5245   */\n      tag_146\n        /* \"#utility.yul\":5239:5244   */\n      dup2\n        /* \"#utility.yul\":5213:5245   */\n      tag_78\n      jump\t// in\n    tag_146:\n        /* \"#utility.yul\":5110:5251   */\n      swap3\n      swap2\n      pop\n      pop\n      jump\t// out\n        /* \"#utility.yul\":5257:5333   */\n    tag_80:\n        /* \"#utility.yul\":5293:5300   */\n      0x00\n        /* \"#utility.yul\":5322:5327   */\n      dup2\n        /* \"#utility.yul\":5311:5327   */\n      swap1\n      pop\n        /* \"#utility.yul\":5257:5333   */\n      swap2\n      swap1\n      pop\n      jump\t// out\n        /* \"#utility.yul\":5339:5459   */\n    tag_81:\n        /* \"#utility.yul\":5411:5434   */\n      tag_149\n        /* \"#utility.yul\":5428:5433   */\n      dup2\n        /* \"#utility.yul\":5411:5434   */\n      tag_80\n      jump\t// in\n    tag_149:\n        /* \"#utility.yul\":5404:5409   */\n      dup2\n        /* \"#utility.yul\":5401:5435   */\n      eq\n        /* \"#utility.yul\":5391:5453   */\n      tag_150\n      jumpi\n        /* \"#utility.yul\":5449:5450   */\n      0x00\n        /* \"#utility.yul\":5446:5447   */\n      dup1\n        /* \"#utility.yul\":5439:5451   */\n      revert\n        /* \"#utility.yul\":5391:5453   */\n    tag_150:\n        /* \"#utility.yul\":5339:5459   */\n      pop\n      jump\t// out\n        /* \"#utility.yul\":5465:5606   */\n    tag_82:\n        /* \"#utility.yul\":5521:5526   */\n      0x00\n        /* \"#utility.yul\":5552:5558   */\n      dup2\n        /* \"#utility.yul\":5546:5559   */\n      mload\n        /* \"#utility.yul\":5537:5559   */\n      swap1\n      pop\n        /* \"#utility.yul\":5568:5600   */\n      tag_152\n        /* \"#utility.yul\":5594:5599   */\n      dup2\n        /* \"#utility.yul\":5568:5600   */\n      tag_81\n      jump\t// in\n    tag_152:\n        /* \"#utility.yul\":5465:5606   */\n      swap3\n      swap2\n      pop\n      pop\n      jump\t// out\n        /* \"#utility.yul\":5612:5755   */\n    tag_83:\n        /* \"#utility.yul\":5669:5674   */\n      0x00\n        /* \"#utility.yul\":5700:5706   */\n      dup2\n        /* \"#utility.yul\":5694:5707   */\n      mload\n        /* \"#utility.yul\":5685:5707   */\n      swap1\n      pop\n        /* \"#utility.yul\":5716:5749   */\n      tag_154\n        /* \"#utility.yul\":5743:5748   */\n      dup2\n        /* \"#utility.yul\":5716:5749   */\n      tag_69\n      jump\t// in\n    tag_154:\n        /* \"#utility.yul\":5612:5755   */\n      swap3\n      swap2\n      pop\n      pop\n      jump\t// out\n        /* \"#utility.yul\":5761:6732   */\n    tag_57:\n        /* \"#utility.yul\":5864:5870   */\n      0x00\n        /* \"#utility.yul\":5872:5878   */\n      dup1\n        /* \"#utility.yul\":5880:5886   */\n      0x00\n        /* \"#utility.yul\":5888:5894   */\n      dup1\n        /* \"#utility.yul\":5896:5902   */\n      0x00\n        /* \"#utility.yul\":5945:5948   */\n      0xa0\n        /* \"#utility.yul\":5933:5942   */\n      dup7\n        /* \"#utility.yul\":5924:5931   */\n      dup9\n        /* \"#utility.yul\":5920:5943   */\n      sub\n        /* \"#utility.yul\":5916:5949   */\n      slt\n        /* \"#utility.yul\":5913:6033   */\n      iszero\n      tag_156\n      jumpi\n        /* \"#utility.yul\":5952:6031   */\n      tag_157\n      tag_63\n      jump\t// in\n    tag_157:\n        /* \"#utility.yul\":5913:6033   */\n    tag_156:\n        /* \"#utility.yul\":6072:6073   */\n      0x00\n        /* \"#utility.yul\":6097:6160   */\n      tag_158\n        /* \"#utility.yul\":6152:6159   */\n      dup9\n        /* \"#utility.yul\":6143:6149   */\n      dup3\n        /* \"#utility.yul\":6132:6141   */\n      dup10\n        /* \"#utility.yul\":6128:6150   */\n      add\n        /* \"#utility.yul\":6097:6160   */\n      tag_79\n      jump\t// in\n    tag_158:\n        /* \"#utility.yul\":6087:6160   */\n      swap6\n      pop\n        /* \"#utility.yul\":6043:6170   */\n      pop\n        /* \"#utility.yul\":6209:6211   */\n      0x20\n        /* \"#utility.yul\":6235:6298   */\n      tag_159\n        /* \"#utility.yul\":6290:6297   */\n      dup9\n        /* \"#utility.yul\":6281:6287   */\n      dup3\n        /* \"#utility.yul\":6270:6279   */\n      dup10\n        /* \"#utility.yul\":6266:6288   */\n      add\n        /* \"#utility.yul\":6235:6298   */\n      tag_82\n      jump\t// in\n    tag_159:\n        /* \"#utility.yul\":6225:6298   */\n      swap5\n      pop\n        /* \"#utility.yul\":6180:6308   */\n      pop\n        /* \"#utility.yul\":6347:6349   */\n      0x40\n        /* \"#utility.yul\":6373:6437   */\n      tag_160\n        /* \"#utility.yul\":6429:6436   */\n      dup9\n        /* \"#utility.yul\":6420:6426   */\n      dup3\n        /* \"#utility.yul\":6409:6418   */\n      dup10\n        /* \"#utility.yul\":6405:6427   */\n      add\n        /* \"#utility.yul\":6373:6437   */\n      tag_83\n      jump\t// in\n    tag_160:\n        /* \"#utility.yul\":6363:6437   */\n      swap4\n      pop\n        /* \"#utility.yul\":6318:6447   */\n      pop\n        /* \"#utility.yul\":6486:6488   */\n      0x60\n        /* \"#utility.yul\":6512:6576   */\n      tag_161\n        /* \"#utility.yul\":6568:6575   */\n      dup9\n        /* \"#utility.yul\":6559:6565   */\n      dup3\n        /* \"#utility.yul\":6548:6557   */\n      dup10\n        /* \"#utility.yul\":6544:6566   */\n      add\n        /* \"#utility.yul\":6512:6576   */\n      tag_83\n      jump\t// in\n    tag_161:\n        /* \"#utility.yul\":6502:6576   */\n      swap3\n      pop\n        /* \"#utility.yul\":6457:6586   */\n      pop\n        /* \"#utility.yul\":6625:6628   */\n      0x80\n        /* \"#utility.yul\":6652:6715   */\n      tag_162\n        /* \"#utility.yul\":6707:6714   */\n      dup9\n        /* \"#utility.yul\":6698:6704   */\n      dup3\n        /* \"#utility.yul\":6687:6696   */\n      dup10\n        /* \"#utility.yul\":6683:6705   */\n      add\n        /* \"#utility.yul\":6652:6715   */\n      tag_79\n      jump\t// in\n    tag_162:\n        /* \"#utility.yul\":6642:6715   */\n      swap2\n      pop\n        /* \"#utility.yul\":6596:6725   */\n      pop\n        /* \"#utility.yul\":5761:6732   */\n      swap3\n      swap6\n      pop\n      swap3\n      swap6\n      swap1\n      swap4\n      pop\n      jump\t// out\n        /* \"#utility.yul\":6738:7729   */\n    tag_59:\n        /* \"#utility.yul\":6777:6784   */\n      0x00\n        /* \"#utility.yul\":6800:6819   */\n      tag_164\n        /* \"#utility.yul\":6817:6818   */\n      dup3\n        /* \"#utility.yul\":6800:6819   */\n      tag_80\n      jump\t// in\n    tag_164:\n        /* \"#utility.yul\":6795:6819   */\n      swap2\n      pop\n        /* \"#utility.yul\":6833:6852   */\n      tag_165\n        /* \"#utility.yul\":6850:6851   */\n      dup4\n        /* \"#utility.yul\":6833:6852   */\n      tag_80\n      jump\t// in\n    tag_165:\n        /* \"#utility.yul\":6828:6852   */\n      swap3\n      pop\n        /* \"#utility.yul\":7034:7035   */\n      dup3\n        /* \"#utility.yul\":6966:7032   */\n      0x7fffffffffffffffffffffffffffffffffffffffffffffffffffffffffffffff\n        /* \"#utility.yul\":6962:7036   */\n      div\n        /* \"#utility.yul\":6959:6960   */\n      dup3\n        /* \"#utility.yul\":6956:7037   */\n      gt\n        /* \"#utility.yul\":6951:6952   */\n      0x00\n        /* \"#utility.yul\":6948:6949   */\n      dup5\n        /* \"#utility.yul\":6944:6953   */\n      sgt\n        /* \"#utility.yul\":6940:6941   */\n      0x00\n        /* \"#utility.yul\":6937:6938   */\n      dup5\n        /* \"#utility.yul\":6933:6942   */\n      sgt\n        /* \"#utility.yul\":6929:6954   */\n      and\n        /* \"#utility.yul\":6925:7038   */\n      and\n        /* \"#utility.yul\":6922:7061   */\n      iszero\n      tag_166\n      jumpi\n        /* \"#utility.yul\":7041:7059   */\n      tag_167\n      tag_72\n      jump\t// in\n    tag_167:\n        /* \"#utility.yul\":6922:7061   */\n    tag_166:\n        /* \"#utility.yul\":7245:7246   */\n      dup2\n        /* \"#utility.yul\":7177:7243   */\n      0x8000000000000000000000000000000000000000000000000000000000000000\n        /* \"#utility.yul\":7172:7247   */\n      sdiv\n        /* \"#utility.yul\":7169:7170   */\n      dup4\n        /* \"#utility.yul\":7165:7248   */\n      slt\n        /* \"#utility.yul\":7160:7161   */\n      0x00\n        /* \"#utility.yul\":7157:7158   */\n      dup5\n        /* \"#utility.yul\":7153:7162   */\n      slt\n        /* \"#utility.yul\":7149:7150   */\n      0x00\n        /* \"#utility.yul\":7146:7147   */\n      dup5\n        /* \"#utility.yul\":7142:7151   */\n      sgt\n        /* \"#utility.yul\":7138:7163   */\n      and\n        /* \"#utility.yul\":7134:7249   */\n      and\n        /* \"#utility.yul\":7131:7272   */\n      iszero\n      tag_168\n      jumpi\n        /* \"#utility.yul\":7252:7270   */\n      tag_169\n      tag_72\n      jump\t// in\n    tag_169:\n        /* \"#utility.yul\":7131:7272   */\n    tag_168:\n        /* \"#utility.yul\":7456:7457   */\n      dup3\n        /* \"#utility.yul\":7388:7454   */\n      0x8000000000000000000000000000000000000000000000000000000000000000\n        /* \"#utility.yul\":7383:7458   */\n      sdiv\n        /* \"#utility.yul\":7380:7381   */\n      dup3\n        /* \"#utility.yul\":7376:7459   */\n      slt\n        /* \"#utility.yul\":7371:7372   */\n      0x00\n        /* \"#utility.yul\":7368:7369   */\n      dup5\n        /* \"#utility.yul\":7364:7373   */\n      sgt\n        /* \"#utility.yul\":7360:7361   */\n      0x00\n        /* \"#utility.yul\":7357:7358   */\n      dup5\n        /* \"#utility.yul\":7353:7362   */\n      slt\n        /* \"#utility.yul\":7349:7374   */\n      and\n        /* \"#utility.yul\":7345:7460   */\n      and\n        /* \"#utility.yul\":7342:7483   */\n      iszero\n      tag_170\n      jumpi\n        /* \"#utility.yul\":7463:7481   */\n      tag_171\n      tag_72\n      jump\t// in\n    tag_171:\n        /* \"#utility.yul\":7342:7483   */\n    tag_170:\n        /* \"#utility.yul\":7666:7667   */\n      dup3\n        /* \"#utility.yul\":7598:7664   */\n      0x7fffffffffffffffffffffffffffffffffffffffffffffffffffffffffffffff\n        /* \"#utility.yul\":7593:7668   */\n      sdiv\n        /* \"#utility.yul\":7590:7591   */\n      dup3\n        /* \"#utility.yul\":7586:7669   */\n      slt\n        /* \"#utility.yul\":7581:7582   */\n      0x00\n        /* \"#utility.yul\":7578:7579   */\n      dup5\n        /* \"#utility.yul\":7574:7583   */\n      slt\n        /* \"#utility.yul\":7570:7571   */\n      0x00\n        /* \"#utility.yul\":7567:7568   */\n      dup5\n        /* \"#utility.yul\":7563:7572   */\n      slt\n        /* \"#utility.yul\":7559:7584   */\n      and\n        /* \"#utility.yul\":7555:7670   */\n      and\n        /* \"#utility.yul\":7552:7693   */\n      iszero\n      tag_172\n      jumpi\n        /* \"#utility.yul\":7673:7691   */\n      tag_173\n      tag_72\n      jump\t// in\n    tag_173:\n        /* \"#utility.yul\":7552:7693   */\n    tag_172:\n        /* \"#utility.yul\":7721:7722   */\n      dup3\n        /* \"#utility.yul\":7718:7719   */\n      dup3\n        /* \"#utility.yul\":7714:7723   */\n      mul\n        /* \"#utility.yul\":7703:7723   */\n      swap1\n      pop\n        /* \"#utility.yul\":6738:7729   */\n      swap3\n      swap2\n      pop\n      pop\n      jump\t// out\n\n    auxdata: 0xa2646970667358221220f2964647fafc99f867de5ee66ea61e90d1af352c188864e4a653d186a574a96564736f6c63430008080033\n}\n",
				"bytecode": {
					"linkReferences": {},
					"object": "60806040526802b5e3af16b188000060005534801561001d57600080fd5b506108cb8061002d6000396000f3fe60806040526004361061004a5760003560e01c80633430a88c1461004f5780633ccfd60b1461007a5780633e47d6f314610091578063b60d4288146100ce578063dc0d3dff146100d8575b600080fd5b34801561005b57600080fd5b50610064610115565b6040516100719190610399565b60405180910390f35b34801561008657600080fd5b5061008f61011b565b005b34801561009d57600080fd5b506100b860048036038101906100b39190610417565b610141565b6040516100c59190610399565b60405180910390f35b6100d6610159565b005b3480156100e457600080fd5b506100ff60048036038101906100fa9190610470565b61024f565b60405161010c91906104ac565b60405180910390f35b60005481565b60005b60018054905081101561013e578080610136906104f6565b91505061011e565b50565b60026020528060005260406000206000915090505481565b6000546101653461028e565b10156101a6576040517f08c379a000000000000000000000000000000000000000000000000000000000815260040161019d9061059c565b60405180910390fd5b6001339080600181540180825580915050600190039060005260206000200160009091909190916101000a81548173ffffffffffffffffffffffffffffffffffffffff021916908373ffffffffffffffffffffffffffffffffffffffff16021790555034600260003373ffffffffffffffffffffffffffffffffffffffff1673ffffffffffffffffffffffffffffffffffffffff16815260200190815260200160002081905550565b6001818154811061025f57600080fd5b906000526020600020016000915054906101000a900473ffffffffffffffffffffffffffffffffffffffff1681565b6000806102996102c8565b90506000670de0b6b3a764000084836102b291906105bc565b6102bc9190610645565b90508092505050919050565b600080738a753747a1fa494ec906ce90e9f37563a8af630e905060008173ffffffffffffffffffffffffffffffffffffffff1663feaf968c6040518163ffffffff1660e01b815260040160a06040518083038186803b15801561032a57600080fd5b505afa15801561033e573d6000803e3d6000fd5b505050506040513d601f19601f820116820180604052508101906103629190610703565b5050509150506402540be40081610379919061077e565b9250505090565b6000819050919050565b61039381610380565b82525050565b60006020820190506103ae600083018461038a565b92915050565b600080fd5b600073ffffffffffffffffffffffffffffffffffffffff82169050919050565b60006103e4826103b9565b9050919050565b6103f4816103d9565b81146103ff57600080fd5b50565b600081359050610411816103eb565b92915050565b60006020828403121561042d5761042c6103b4565b5b600061043b84828501610402565b91505092915050565b61044d81610380565b811461045857600080fd5b50565b60008135905061046a81610444565b92915050565b600060208284031215610486576104856103b4565b5b60006104948482850161045b565b91505092915050565b6104a6816103d9565b82525050565b60006020820190506104c1600083018461049d565b92915050565b7f4e487b7100000000000000000000000000000000000000000000000000000000600052601160045260246000fd5b600061050182610380565b91507fffffffffffffffffffffffffffffffffffffffffffffffffffffffffffffffff821415610534576105336104c7565b5b600182019050919050565b600082825260208201905092915050565b7f4469646e27742073656e6420656e6f7567680000000000000000000000000000600082015250565b600061058660128361053f565b915061059182610550565b602082019050919050565b600060208201905081810360008301526105b581610579565b9050919050565b60006105c782610380565b91506105d283610380565b9250817fffffffffffffffffffffffffffffffffffffffffffffffffffffffffffffffff048311821515161561060b5761060a6104c7565b5b828202905092915050565b7f4e487b7100000000000000000000000000000000000000000000000000000000600052601260045260246000fd5b600061065082610380565b915061065b83610380565b92508261066b5761066a610616565b5b828204905092915050565b600069ffffffffffffffffffff82169050919050565b61069581610676565b81146106a057600080fd5b50565b6000815190506106b28161068c565b92915050565b6000819050919050565b6106cb816106b8565b81146106d657600080fd5b50565b6000815190506106e8816106c2565b92915050565b6000815190506106fd81610444565b92915050565b600080600080600060a0868803121561071f5761071e6103b4565b5b600061072d888289016106a3565b955050602061073e888289016106d9565b945050604061074f888289016106ee565b9350506060610760888289016106ee565b9250506080610771888289016106a3565b9150509295509295909350565b6000610789826106b8565b9150610794836106b8565b9250827f7fffffffffffffffffffffffffffffffffffffffffffffffffffffffffffffff04821160008413600084131616156107d3576107d26104c7565b5b817f800000000000000000000000000000000000000000000000000000000000000005831260008412600084131616156108105761080f6104c7565b5b827f8000000000000000000000000000000000000000000000000000000000000000058212600084136000841216161561084d5761084c6104c7565b5b827f7fffffffffffffffffffffffffffffffffffffffffffffffffffffffffffffff058212600084126000841216161561088a576108896104c7565b5b82820290509291505056fea2646970667358221220f2964647fafc99f867de5ee66ea61e90d1af352c188864e4a653d186a574a96564736f6c63430008080033",
					"opcodes": "PUSH1 0x80 PUSH1 0x40 MSTORE PUSH9 0x2B5E3AF16B1880000 PUSH1 0x0 SSTORE CALLVALUE DUP1 ISZERO PUSH2 0x1D JUMPI PUSH1 0x0 DUP1 REVERT JUMPDEST POP PUSH2 0x8CB DUP1 PUSH2 0x2D PUSH1 0x0 CODECOPY PUSH1 0x0 RETURN INVALID PUSH1 0x80 PUSH1 0x40 MSTORE PUSH1 0x4 CALLDATASIZE LT PUSH2 0x4A JUMPI PUSH1 0x0 CALLDATALOAD PUSH1 0xE0 SHR DUP1 PUSH4 0x3430A88C EQ PUSH2 0x4F JUMPI DUP1 PUSH4 0x3CCFD60B EQ PUSH2 0x7A JUMPI DUP1 PUSH4 0x3E47D6F3 EQ PUSH2 0x91 JUMPI DUP1 PUSH4 0xB60D4288 EQ PUSH2 0xCE JUMPI DUP1 PUSH4 0xDC0D3DFF EQ PUSH2 0xD8 JUMPI JUMPDEST PUSH1 0x0 DUP1 REVERT JUMPDEST CALLVALUE DUP1 ISZERO PUSH2 0x5B JUMPI PUSH1 0x0 DUP1 REVERT JUMPDEST POP PUSH2 0x64 PUSH2 0x115 JUMP JUMPDEST PUSH1 0x40 MLOAD PUSH2 0x71 SWAP2 SWAP1 PUSH2 0x399 JUMP JUMPDEST PUSH1 0x40 MLOAD DUP1 SWAP2 SUB SWAP1 RETURN JUMPDEST CALLVALUE DUP1 ISZERO PUSH2 0x86 JUMPI PUSH1 0x0 DUP1 REVERT JUMPDEST POP PUSH2 0x8F PUSH2 0x11B JUMP JUMPDEST STOP JUMPDEST CALLVALUE DUP1 ISZERO PUSH2 0x9D JUMPI PUSH1 0x0 DUP1 REVERT JUMPDEST POP PUSH2 0xB8 PUSH1 0x4 DUP1 CALLDATASIZE SUB DUP2 ADD SWAP1 PUSH2 0xB3 SWAP2 SWAP1 PUSH2 0x417 JUMP JUMPDEST PUSH2 0x141 JUMP JUMPDEST PUSH1 0x40 MLOAD PUSH2 0xC5 SWAP2 SWAP1 PUSH2 0x399 JUMP JUMPDEST PUSH1 0x40 MLOAD DUP1 SWAP2 SUB SWAP1 RETURN JUMPDEST PUSH2 0xD6 PUSH2 0x159 JUMP JUMPDEST STOP JUMPDEST CALLVALUE DUP1 ISZERO PUSH2 0xE4 JUMPI PUSH1 0x0 DUP1 REVERT JUMPDEST POP PUSH2 0xFF PUSH1 0x4 DUP1 CALLDATASIZE SUB DUP2 ADD SWAP1 PUSH2 0xFA SWAP2 SWAP1 PUSH2 0x470 JUMP JUMPDEST PUSH2 0x24F JUMP JUMPDEST PUSH1 0x40 MLOAD PUSH2 0x10C SWAP2 SWAP1 PUSH2 0x4AC JUMP JUMPDEST PUSH1 0x40 MLOAD DUP1 SWAP2 SUB SWAP1 RETURN JUMPDEST PUSH1 0x0 SLOAD DUP2 JUMP JUMPDEST PUSH1 0x0 JUMPDEST PUSH1 0x1 DUP1 SLOAD SWAP1 POP DUP2 LT ISZERO PUSH2 0x13E JUMPI DUP1 DUP1 PUSH2 0x136 SWAP1 PUSH2 0x4F6 JUMP JUMPDEST SWAP2 POP POP PUSH2 0x11E JUMP JUMPDEST POP JUMP JUMPDEST PUSH1 0x2 PUSH1 0x20 MSTORE DUP1 PUSH1 0x0 MSTORE PUSH1 0x40 PUSH1 0x0 KECCAK256 PUSH1 0x0 SWAP2 POP SWAP1 POP SLOAD DUP2 JUMP JUMPDEST PUSH1 0x0 SLOAD PUSH2 0x165 CALLVALUE PUSH2 0x28E JUMP JUMPDEST LT ISZERO PUSH2 0x1A6 JUMPI PUSH1 0x40 MLOAD PUSH32 0x8C379A000000000000000000000000000000000000000000000000000000000 DUP2 MSTORE PUSH1 0x4 ADD PUSH2 0x19D SWAP1 PUSH2 0x59C JUMP JUMPDEST PUSH1 0x40 MLOAD DUP1 SWAP2 SUB SWAP1 REVERT JUMPDEST PUSH1 0x1 CALLER SWAP1 DUP1 PUSH1 0x1 DUP2 SLOAD ADD DUP1 DUP3 SSTORE DUP1 SWAP2 POP POP PUSH1 0x1 SWAP1 SUB SWAP1 PUSH1 0x0 MSTORE PUSH1 0x20 PUSH1 0x0 KECCAK256 ADD PUSH1 0x0 SWAP1 SWAP2 SWAP1 SWAP2 SWAP1 SWAP2 PUSH2 0x100 EXP DUP2 SLOAD DUP2 PUSH20 0xFFFFFFFFFFFFFFFFFFFFFFFFFFFFFFFFFFFFFFFF MUL NOT AND SWAP1 DUP4 PUSH20 0xFFFFFFFFFFFFFFFFFFFFFFFFFFFFFFFFFFFFFFFF AND MUL OR SWAP1 SSTORE POP CALLVALUE PUSH1 0x2 PUSH1 0x0 CALLER PUSH20 0xFFFFFFFFFFFFFFFFFFFFFFFFFFFFFFFFFFFFFFFF AND PUSH20 0xFFFFFFFFFFFFFFFFFFFFFFFFFFFFFFFFFFFFFFFF AND DUP2 MSTORE PUSH1 0x20 ADD SWAP1 DUP2 MSTORE PUSH1 0x20 ADD PUSH1 0x0 KECCAK256 DUP2 SWAP1 SSTORE POP JUMP JUMPDEST PUSH1 0x1 DUP2 DUP2 SLOAD DUP2 LT PUSH2 0x25F JUMPI PUSH1 0x0 DUP1 REVERT JUMPDEST SWAP1 PUSH1 0x0 MSTORE PUSH1 0x20 PUSH1 0x0 KECCAK256 ADD PUSH1 0x0 SWAP2 POP SLOAD SWAP1 PUSH2 0x100 EXP SWAP1 DIV PUSH20 0xFFFFFFFFFFFFFFFFFFFFFFFFFFFFFFFFFFFFFFFF AND DUP2 JUMP JUMPDEST PUSH1 0x0 DUP1 PUSH2 0x299 PUSH2 0x2C8 JUMP JUMPDEST SWAP1 POP PUSH1 0x0 PUSH8 0xDE0B6B3A7640000 DUP5 DUP4 PUSH2 0x2B2 SWAP2 SWAP1 PUSH2 0x5BC JUMP JUMPDEST PUSH2 0x2BC SWAP2 SWAP1 PUSH2 0x645 JUMP JUMPDEST SWAP1 POP DUP1 SWAP3 POP POP POP SWAP2 SWAP1 POP JUMP JUMPDEST PUSH1 0x0 DUP1 PUSH20 0x8A753747A1FA494EC906CE90E9F37563A8AF630E SWAP1 POP PUSH1 0x0 DUP2 PUSH20 0xFFFFFFFFFFFFFFFFFFFFFFFFFFFFFFFFFFFFFFFF AND PUSH4 0xFEAF968C PUSH1 0x40 MLOAD DUP2 PUSH4 0xFFFFFFFF AND PUSH1 0xE0 SHL DUP2 MSTORE PUSH1 0x4 ADD PUSH1 0xA0 PUSH1 0x40 MLOAD DUP1 DUP4 SUB DUP2 DUP7 DUP1 EXTCODESIZE ISZERO DUP1 ISZERO PUSH2 0x32A JUMPI PUSH1 0x0 DUP1 REVERT JUMPDEST POP GAS STATICCALL ISZERO DUP1 ISZERO PUSH2 0x33E JUMPI RETURNDATASIZE PUSH1 0x0 DUP1 RETURNDATACOPY RETURNDATASIZE PUSH1 0x0 REVERT JUMPDEST POP POP POP POP PUSH1 0x40 MLOAD RETURNDATASIZE PUSH1 0x1F NOT PUSH1 0x1F DUP3 ADD AND DUP3 ADD DUP1 PUSH1 0x40 MSTORE POP DUP2 ADD SWAP1 PUSH2 0x362 SWAP2 SWAP1 PUSH2 0x703 JUMP JUMPDEST POP POP POP SWAP2 POP POP PUSH5 0x2540BE400 DUP2 PUSH2 0x379 SWAP2 SWAP1 PUSH2 0x77E JUMP JUMPDEST SWAP3 POP POP POP SWAP1 JUMP JUMPDEST PUSH1 0x0 DUP2 SWAP1 POP SWAP2 SWAP1 POP JUMP JUMPDEST PUSH2 0x393 DUP2 PUSH2 0x380 JUMP JUMPDEST DUP3 MSTORE POP POP JUMP JUMPDEST PUSH1 0x0 PUSH1 0x20 DUP3 ADD SWAP1 POP PUSH2 0x3AE PUSH1 0x0 DUP4 ADD DUP5 PUSH2 0x38A JUMP JUMPDEST SWAP3 SWAP2 POP POP JUMP JUMPDEST PUSH1 0x0 DUP1 REVERT JUMPDEST PUSH1 0x0 PUSH20 0xFFFFFFFFFFFFFFFFFFFFFFFFFFFFFFFFFFFFFFFF DUP3 AND SWAP1 POP SWAP2 SWAP1 POP JUMP JUMPDEST PUSH1 0x0 PUSH2 0x3E4 DUP3 PUSH2 0x3B9 JUMP JUMPDEST SWAP1 POP SWAP2 SWAP1 POP JUMP JUMPDEST PUSH2 0x3F4 DUP2 PUSH2 0x3D9 JUMP JUMPDEST DUP2 EQ PUSH2 0x3FF JUMPI PUSH1 0x0 DUP1 REVERT JUMPDEST POP JUMP JUMPDEST PUSH1 0x0 DUP2 CALLDATALOAD SWAP1 POP PUSH2 0x411 DUP2 PUSH2 0x3EB JUMP JUMPDEST SWAP3 SWAP2 POP POP JUMP JUMPDEST PUSH1 0x0 PUSH1 0x20 DUP3 DUP5 SUB SLT ISZERO PUSH2 0x42D JUMPI PUSH2 0x42C PUSH2 0x3B4 JUMP JUMPDEST JUMPDEST PUSH1 0x0 PUSH2 0x43B DUP5 DUP3 DUP6 ADD PUSH2 0x402 JUMP JUMPDEST SWAP2 POP POP SWAP3 SWAP2 POP POP JUMP JUMPDEST PUSH2 0x44D DUP2 PUSH2 0x380 JUMP JUMPDEST DUP2 EQ PUSH2 0x458 JUMPI PUSH1 0x0 DUP1 REVERT JUMPDEST POP JUMP JUMPDEST PUSH1 0x0 DUP2 CALLDATALOAD SWAP1 POP PUSH2 0x46A DUP2 PUSH2 0x444 JUMP JUMPDEST SWAP3 SWAP2 POP POP JUMP JUMPDEST PUSH1 0x0 PUSH1 0x20 DUP3 DUP5 SUB SLT ISZERO PUSH2 0x486 JUMPI PUSH2 0x485 PUSH2 0x3B4 JUMP JUMPDEST JUMPDEST PUSH1 0x0 PUSH2 0x494 DUP5 DUP3 DUP6 ADD PUSH2 0x45B JUMP JUMPDEST SWAP2 POP POP SWAP3 SWAP2 POP POP JUMP JUMPDEST PUSH2 0x4A6 DUP2 PUSH2 0x3D9 JUMP JUMPDEST DUP3 MSTORE POP POP JUMP JUMPDEST PUSH1 0x0 PUSH1 0x20 DUP3 ADD SWAP1 POP PUSH2 0x4C1 PUSH1 0x0 DUP4 ADD DUP5 PUSH2 0x49D JUMP JUMPDEST SWAP3 SWAP2 POP POP JUMP JUMPDEST PUSH32 0x4E487B7100000000000000000000000000000000000000000000000000000000 PUSH1 0x0 MSTORE PUSH1 0x11 PUSH1 0x4 MSTORE PUSH1 0x24 PUSH1 0x0 REVERT JUMPDEST PUSH1 0x0 PUSH2 0x501 DUP3 PUSH2 0x380 JUMP JUMPDEST SWAP2 POP PUSH32 0xFFFFFFFFFFFFFFFFFFFFFFFFFFFFFFFFFFFFFFFFFFFFFFFFFFFFFFFFFFFFFFFF DUP3 EQ ISZERO PUSH2 0x534 JUMPI PUSH2 0x533 PUSH2 0x4C7 JUMP JUMPDEST JUMPDEST PUSH1 0x1 DUP3 ADD SWAP1 POP SWAP2 SWAP1 POP JUMP JUMPDEST PUSH1 0x0 DUP3 DUP3 MSTORE PUSH1 0x20 DUP3 ADD SWAP1 POP SWAP3 SWAP2 POP POP JUMP JUMPDEST PUSH32 0x4469646E27742073656E6420656E6F7567680000000000000000000000000000 PUSH1 0x0 DUP3 ADD MSTORE POP JUMP JUMPDEST PUSH1 0x0 PUSH2 0x586 PUSH1 0x12 DUP4 PUSH2 0x53F JUMP JUMPDEST SWAP2 POP PUSH2 0x591 DUP3 PUSH2 0x550 JUMP JUMPDEST PUSH1 0x20 DUP3 ADD SWAP1 POP SWAP2 SWAP1 POP JUMP JUMPDEST PUSH1 0x0 PUSH1 0x20 DUP3 ADD SWAP1 POP DUP2 DUP2 SUB PUSH1 0x0 DUP4 ADD MSTORE PUSH2 0x5B5 DUP2 PUSH2 0x579 JUMP JUMPDEST SWAP1 POP SWAP2 SWAP1 POP JUMP JUMPDEST PUSH1 0x0 PUSH2 0x5C7 DUP3 PUSH2 0x380 JUMP JUMPDEST SWAP2 POP PUSH2 0x5D2 DUP4 PUSH2 0x380 JUMP JUMPDEST SWAP3 POP DUP2 PUSH32 0xFFFFFFFFFFFFFFFFFFFFFFFFFFFFFFFFFFFFFFFFFFFFFFFFFFFFFFFFFFFFFFFF DIV DUP4 GT DUP3 ISZERO ISZERO AND ISZERO PUSH2 0x60B JUMPI PUSH2 0x60A PUSH2 0x4C7 JUMP JUMPDEST JUMPDEST DUP3 DUP3 MUL SWAP1 POP SWAP3 SWAP2 POP POP JUMP JUMPDEST PUSH32 0x4E487B7100000000000000000000000000000000000000000000000000000000 PUSH1 0x0 MSTORE PUSH1 0x12 PUSH1 0x4 MSTORE PUSH1 0x24 PUSH1 0x0 REVERT JUMPDEST PUSH1 0x0 PUSH2 0x650 DUP3 PUSH2 0x380 JUMP JUMPDEST SWAP2 POP PUSH2 0x65B DUP4 PUSH2 0x380 JUMP JUMPDEST SWAP3 POP DUP3 PUSH2 0x66B JUMPI PUSH2 0x66A PUSH2 0x616 JUMP JUMPDEST JUMPDEST DUP3 DUP3 DIV SWAP1 POP SWAP3 SWAP2 POP POP JUMP JUMPDEST PUSH1 0x0 PUSH10 0xFFFFFFFFFFFFFFFFFFFF DUP3 AND SWAP1 POP SWAP2 SWAP1 POP JUMP JUMPDEST PUSH2 0x695 DUP2 PUSH2 0x676 JUMP JUMPDEST DUP2 EQ PUSH2 0x6A0 JUMPI PUSH1 0x0 DUP1 REVERT JUMPDEST POP JUMP JUMPDEST PUSH1 0x0 DUP2 MLOAD SWAP1 POP PUSH2 0x6B2 DUP2 PUSH2 0x68C JUMP JUMPDEST SWAP3 SWAP2 POP POP JUMP JUMPDEST PUSH1 0x0 DUP2 SWAP1 POP SWAP2 SWAP1 POP JUMP JUMPDEST PUSH2 0x6CB DUP2 PUSH2 0x6B8 JUMP JUMPDEST DUP2 EQ PUSH2 0x6D6 JUMPI PUSH1 0x0 DUP1 REVERT JUMPDEST POP JUMP JUMPDEST PUSH1 0x0 DUP2 MLOAD SWAP1 POP PUSH2 0x6E8 DUP2 PUSH2 0x6C2 JUMP JUMPDEST SWAP3 SWAP2 POP POP JUMP JUMPDEST PUSH1 0x0 DUP2 MLOAD SWAP1 POP PUSH2 0x6FD DUP2 PUSH2 0x444 JUMP JUMPDEST SWAP3 SWAP2 POP POP JUMP JUMPDEST PUSH1 0x0 DUP1 PUSH1 0x0 DUP1 PUSH1 0x0 PUSH1 0xA0 DUP7 DUP9 SUB SLT ISZERO PUSH2 0x71F JUMPI PUSH2 0x71E PUSH2 0x3B4 JUMP JUMPDEST JUMPDEST PUSH1 0x0 PUSH2 0x72D DUP9 DUP3 DUP10 ADD PUSH2 0x6A3 JUMP JUMPDEST SWAP6 POP POP PUSH1 0x20 PUSH2 0x73E DUP9 DUP3 DUP10 ADD PUSH2 0x6D9 JUMP JUMPDEST SWAP5 POP POP PUSH1 0x40 PUSH2 0x74F DUP9 DUP3 DUP10 ADD PUSH2 0x6EE JUMP JUMPDEST SWAP4 POP POP PUSH1 0x60 PUSH2 0x760 DUP9 DUP3 DUP10 ADD PUSH2 0x6EE JUMP JUMPDEST SWAP3 POP POP PUSH1 0x80 PUSH2 0x771 DUP9 DUP3 DUP10 ADD PUSH2 0x6A3 JUMP JUMPDEST SWAP2 POP POP SWAP3 SWAP6 POP SWAP3 SWAP6 SWAP1 SWAP4 POP JUMP JUMPDEST PUSH1 0x0 PUSH2 0x789 DUP3 PUSH2 0x6B8 JUMP JUMPDEST SWAP2 POP PUSH2 0x794 DUP4 PUSH2 0x6B8 JUMP JUMPDEST SWAP3 POP DUP3 PUSH32 0x7FFFFFFFFFFFFFFFFFFFFFFFFFFFFFFFFFFFFFFFFFFFFFFFFFFFFFFFFFFFFFFF DIV DUP3 GT PUSH1 0x0 DUP5 SGT PUSH1 0x0 DUP5 SGT AND AND ISZERO PUSH2 0x7D3 JUMPI PUSH2 0x7D2 PUSH2 0x4C7 JUMP JUMPDEST JUMPDEST DUP2 PUSH32 0x8000000000000000000000000000000000000000000000000000000000000000 SDIV DUP4 SLT PUSH1 0x0 DUP5 SLT PUSH1 0x0 DUP5 SGT AND AND ISZERO PUSH2 0x810 JUMPI PUSH2 0x80F PUSH2 0x4C7 JUMP JUMPDEST JUMPDEST DUP3 PUSH32 0x8000000000000000000000000000000000000000000000000000000000000000 SDIV DUP3 SLT PUSH1 0x0 DUP5 SGT PUSH1 0x0 DUP5 SLT AND AND ISZERO PUSH2 0x84D JUMPI PUSH2 0x84C PUSH2 0x4C7 JUMP JUMPDEST JUMPDEST DUP3 PUSH32 0x7FFFFFFFFFFFFFFFFFFFFFFFFFFFFFFFFFFFFFFFFFFFFFFFFFFFFFFFFFFFFFFF SDIV DUP3 SLT PUSH1 0x0 DUP5 SLT PUSH1 0x0 DUP5 SLT AND AND ISZERO PUSH2 0x88A JUMPI PUSH2 0x889 PUSH2 0x4C7 JUMP JUMPDEST JUMPDEST DUP3 DUP3 MUL SWAP1 POP SWAP3 SWAP2 POP POP JUMP INVALID LOG2 PUSH5 0x6970667358 0x22 SLT KECCAK256 CALLCODE SWAP7 CHAINID SELFBALANCE STATICCALL 0xFC SWAP10 0xF8 PUSH8 0xDE5EE66EA61E90D1 0xAF CALLDATALOAD 0x2C XOR DUP9 PUSH5 0xE4A653D186 0xA5 PUSH21 0xA96564736F6C634300080800330000000000000000 "
				},
				"gasEstimates": {
					"creation": {
						"codeDepositCost": "450200",
						"executionCost": "22592",
						"totalCost": "472792"
					},
					"external": {
						"addressToAmountFunded(address)": "2836",
						"fund()": "infinite",
						"funders(uint256)": "5022",
						"minimumUSD()": "2407",
						"withdraw()": "infinite"
					}
				},
				"methodIdentifiers": {
					"addressToAmountFunded(address)": "3e47d6f3",
					"fund()": "b60d4288",
					"funders(uint256)": "dc0d3dff",
					"minimumUSD()": "3430a88c",
					"withdraw()": "3ccfd60b"
				}
			},
			"storageLayout": {
				"storage": [
					{
						"astId": 56,
						"contract": "contracts/FundMe.sol:FundMe",
						"label": "minimumUSD",
						"offset": 0,
						"slot": "0",
						"type": "t_uint256"
					},
					{
						"astId": 59,
						"contract": "contracts/FundMe.sol:FundMe",
						"label": "funders",
						"offset": 0,
						"slot": "1",
						"type": "t_array(t_address)dyn_storage"
					},
					{
						"astId": 63,
						"contract": "contracts/FundMe.sol:FundMe",
						"label": "addressToAmountFunded",
						"offset": 0,
						"slot": "2",
						"type": "t_mapping(t_address,t_uint256)"
					}
				],
				"types": {
					"t_address": {
						"encoding": "inplace",
						"label": "address",
						"numberOfBytes": "20"
					},
					"t_array(t_address)dyn_storage": {
						"base": "t_address",
						"encoding": "dynamic_array",
						"label": "address[]",
						"numberOfBytes": "32"
					},
					"t_mapping(t_address,t_uint256)": {
						"encoding": "mapping",
						"key": "t_address",
						"label": "mapping(address => uint256)",
						"numberOfBytes": "32",
						"value": "t_uint256"
					},
					"t_uint256": {
						"encoding": "inplace",
						"label": "uint256",
						"numberOfBytes": "32"
					}
				}
			},
			"userdoc": {
				"kind": "user",
				"methods": {},
				"version": 1
			}
		}
	}
}