{
	"contracts/StorageFactory.sol": {
		"StorageFactory": {
			"abi": [
				{
					"inputs": [],
					"name": "createSimpleStorageContract",
					"outputs": [],
					"stateMutability": "nonpayable",
					"type": "function"
				},
				{
					"inputs": [
						{
							"internalType": "uint256",
							"name": "_simpleStorageIndex",
							"type": "uint256"
						},
						{
							"internalType": "uint256",
							"name": "_simpleStorageNumber",
							"type": "uint256"
						}
					],
					"name": "sfStore",
					"outputs": [],
					"stateMutability": "nonpayable",
					"type": "function"
				},
				{
					"inputs": [
						{
							"internalType": "uint256",
							"name": "",
							"type": "uint256"
						}
					],
					"name": "simpleStorageArray",
					"outputs": [
						{
							"internalType": "contract SimpleStorage",
							"name": "",
							"type": "address"
						}
					],
					"stateMutability": "view",
					"type": "function"
				}
			],
			"devdoc": {
				"kind": "dev",
				"methods": {},
				"version": 1
			},
			"evm": {
				"assembly": "    /* \"contracts/StorageFactory.sol\":94:605  contract StorageFactory{... */\n  mstore(0x40, 0x80)\n  callvalue\n  dup1\n  iszero\n  tag_1\n  jumpi\n  0x00\n  dup1\n  revert\ntag_1:\n  pop\n  dataSize(sub_0)\n  dup1\n  dataOffset(sub_0)\n  0x00\n  codecopy\n  0x00\n  return\nstop\n\nsub_0: assembly {\n        /* \"contracts/StorageFactory.sol\":94:605  contract StorageFactory{... */\n      mstore(0x40, 0x80)\n      callvalue\n      dup1\n      iszero\n      tag_1\n      jumpi\n      0x00\n      dup1\n      revert\n    tag_1:\n      pop\n      jumpi(tag_2, lt(calldatasize, 0x04))\n      shr(0xe0, calldataload(0x00))\n      dup1\n      0x1563700f\n      eq\n      tag_3\n      jumpi\n      dup1\n      0x1dda6541\n      eq\n      tag_4\n      jumpi\n      dup1\n      0x64591bf1\n      eq\n      tag_5\n      jumpi\n    tag_2:\n      0x00\n      dup1\n      revert\n        /* \"contracts/StorageFactory.sol\":347:600  function sfStore(uint256 _simpleStorageIndex, uint256 _simpleStorageNumber) public {... */\n    tag_3:\n      tag_6\n      0x04\n      dup1\n      calldatasize\n      sub\n      dup2\n      add\n      swap1\n      tag_7\n      swap2\n      swap1\n      tag_8\n      jump\t// in\n    tag_7:\n      tag_9\n      jump\t// in\n    tag_6:\n      stop\n        /* \"contracts/StorageFactory.sol\":176:339  function createSimpleStorageContract() public {... */\n    tag_4:\n      tag_10\n      tag_11\n      jump\t// in\n    tag_10:\n      stop\n        /* \"contracts/StorageFactory.sol\":126:167  SimpleStorage[] public simpleStorageArray */\n    tag_5:\n      tag_12\n      0x04\n      dup1\n      calldatasize\n      sub\n      dup2\n      add\n      swap1\n      tag_13\n      swap2\n      swap1\n      tag_14\n      jump\t// in\n    tag_13:\n      tag_15\n      jump\t// in\n    tag_12:\n      mload(0x40)\n      tag_16\n      swap2\n      swap1\n      tag_17\n      jump\t// in\n    tag_16:\n      mload(0x40)\n      dup1\n      swap2\n      sub\n      swap1\n      return\n        /* \"contracts/StorageFactory.sol\":347:600  function sfStore(uint256 _simpleStorageIndex, uint256 _simpleStorageNumber) public {... */\n    tag_9:\n      pop\n      pop\n      jump\t// out\n        /* \"contracts/StorageFactory.sol\":176:339  function createSimpleStorageContract() public {... */\n    tag_11:\n        /* \"contracts/StorageFactory.sol\":233:260  SimpleStorage simpleStorage */\n      0x00\n        /* \"contracts/StorageFactory.sol\":263:282  new SimpleStorage() */\n      mload(0x40)\n      tag_20\n      swap1\n      tag_21\n      jump\t// in\n    tag_20:\n      mload(0x40)\n      dup1\n      swap2\n      sub\n      swap1\n      0x00\n      create\n      dup1\n      iszero\n      dup1\n      iszero\n      tag_22\n      jumpi\n      returndatasize\n      0x00\n      dup1\n      returndatacopy\n      revert(0x00, returndatasize)\n    tag_22:\n      pop\n        /* \"contracts/StorageFactory.sol\":233:282  SimpleStorage simpleStorage = new SimpleStorage() */\n      swap1\n      pop\n        /* \"contracts/StorageFactory.sol\":293:311  simpleStorageArray */\n      0x00\n        /* \"contracts/StorageFactory.sol\":317:330  simpleStorage */\n      dup2\n        /* \"contracts/StorageFactory.sol\":293:331  simpleStorageArray.push(simpleStorage) */\n      swap1\n      dup1\n      0x01\n      dup2\n      sload\n      add\n      dup1\n      dup3\n      sstore\n      dup1\n      swap2\n      pop\n      pop\n      0x01\n      swap1\n      sub\n      swap1\n      0x00\n      mstore\n      keccak256(0x00, 0x20)\n      add\n      0x00\n      swap1\n      swap2\n      swap1\n      swap2\n      swap1\n      swap2\n      0x0100\n      exp\n      dup2\n      sload\n      dup2\n      0xffffffffffffffffffffffffffffffffffffffff\n      mul\n      not\n      and\n      swap1\n      dup4\n      0xffffffffffffffffffffffffffffffffffffffff\n      and\n      mul\n      or\n      swap1\n      sstore\n      pop\n        /* \"contracts/StorageFactory.sol\":222:339  {... */\n      pop\n        /* \"contracts/StorageFactory.sol\":176:339  function createSimpleStorageContract() public {... */\n      jump\t// out\n        /* \"contracts/StorageFactory.sol\":126:167  SimpleStorage[] public simpleStorageArray */\n    tag_15:\n      0x00\n      dup2\n      dup2\n      sload\n      dup2\n      lt\n      tag_24\n      jumpi\n      0x00\n      dup1\n      revert\n    tag_24:\n      swap1\n      0x00\n      mstore\n      keccak256(0x00, 0x20)\n      add\n      0x00\n      swap2\n      pop\n      sload\n      swap1\n      0x0100\n      exp\n      swap1\n      div\n      0xffffffffffffffffffffffffffffffffffffffff\n      and\n      dup2\n      jump\t// out\n    tag_21:\n      dataSize(sub_0)\n      dup1\n      dataOffset(sub_0)\n      dup4\n      codecopy\n      add\n      swap1\n      jump\t// out\n        /* \"#utility.yul\":88:205   */\n    tag_27:\n        /* \"#utility.yul\":197:198   */\n      0x00\n        /* \"#utility.yul\":194:195   */\n      dup1\n        /* \"#utility.yul\":187:199   */\n      revert\n        /* \"#utility.yul\":334:411   */\n    tag_29:\n        /* \"#utility.yul\":371:378   */\n      0x00\n        /* \"#utility.yul\":400:405   */\n      dup2\n        /* \"#utility.yul\":389:405   */\n      swap1\n      pop\n        /* \"#utility.yul\":334:411   */\n      swap2\n      swap1\n      pop\n      jump\t// out\n        /* \"#utility.yul\":417:539   */\n    tag_30:\n        /* \"#utility.yul\":490:514   */\n      tag_44\n        /* \"#utility.yul\":508:513   */\n      dup2\n        /* \"#utility.yul\":490:514   */\n      tag_29\n      jump\t// in\n    tag_44:\n        /* \"#utility.yul\":483:488   */\n      dup2\n        /* \"#utility.yul\":480:515   */\n      eq\n        /* \"#utility.yul\":470:533   */\n      tag_45\n      jumpi\n        /* \"#utility.yul\":529:530   */\n      0x00\n        /* \"#utility.yul\":526:527   */\n      dup1\n        /* \"#utility.yul\":519:531   */\n      revert\n        /* \"#utility.yul\":470:533   */\n    tag_45:\n        /* \"#utility.yul\":417:539   */\n      pop\n      jump\t// out\n        /* \"#utility.yul\":545:684   */\n    tag_31:\n        /* \"#utility.yul\":591:596   */\n      0x00\n        /* \"#utility.yul\":629:635   */\n      dup2\n        /* \"#utility.yul\":616:636   */\n      calldataload\n        /* \"#utility.yul\":607:636   */\n      swap1\n      pop\n        /* \"#utility.yul\":645:678   */\n      tag_47\n        /* \"#utility.yul\":672:677   */\n      dup2\n        /* \"#utility.yul\":645:678   */\n      tag_30\n      jump\t// in\n    tag_47:\n        /* \"#utility.yul\":545:684   */\n      swap3\n      swap2\n      pop\n      pop\n      jump\t// out\n        /* \"#utility.yul\":690:1164   */\n    tag_8:\n        /* \"#utility.yul\":758:764   */\n      0x00\n        /* \"#utility.yul\":766:772   */\n      dup1\n        /* \"#utility.yul\":815:817   */\n      0x40\n        /* \"#utility.yul\":803:812   */\n      dup4\n        /* \"#utility.yul\":794:801   */\n      dup6\n        /* \"#utility.yul\":790:813   */\n      sub\n        /* \"#utility.yul\":786:818   */\n      slt\n        /* \"#utility.yul\":783:902   */\n      iszero\n      tag_49\n      jumpi\n        /* \"#utility.yul\":821:900   */\n      tag_50\n      tag_27\n      jump\t// in\n    tag_50:\n        /* \"#utility.yul\":783:902   */\n    tag_49:\n        /* \"#utility.yul\":941:942   */\n      0x00\n        /* \"#utility.yul\":966:1019   */\n      tag_51\n        /* \"#utility.yul\":1011:1018   */\n      dup6\n        /* \"#utility.yul\":1002:1008   */\n      dup3\n        /* \"#utility.yul\":991:1000   */\n      dup7\n        /* \"#utility.yul\":987:1009   */\n      add\n        /* \"#utility.yul\":966:1019   */\n      tag_31\n      jump\t// in\n    tag_51:\n        /* \"#utility.yul\":956:1019   */\n      swap3\n      pop\n        /* \"#utility.yul\":912:1029   */\n      pop\n        /* \"#utility.yul\":1068:1070   */\n      0x20\n        /* \"#utility.yul\":1094:1147   */\n      tag_52\n        /* \"#utility.yul\":1139:1146   */\n      dup6\n        /* \"#utility.yul\":1130:1136   */\n      dup3\n        /* \"#utility.yul\":1119:1128   */\n      dup7\n        /* \"#utility.yul\":1115:1137   */\n      add\n        /* \"#utility.yul\":1094:1147   */\n      tag_31\n      jump\t// in\n    tag_52:\n        /* \"#utility.yul\":1084:1147   */\n      swap2\n      pop\n        /* \"#utility.yul\":1039:1157   */\n      pop\n        /* \"#utility.yul\":690:1164   */\n      swap3\n      pop\n      swap3\n      swap1\n      pop\n      jump\t// out\n        /* \"#utility.yul\":1170:1499   */\n    tag_14:\n        /* \"#utility.yul\":1229:1235   */\n      0x00\n        /* \"#utility.yul\":1278:1280   */\n      0x20\n        /* \"#utility.yul\":1266:1275   */\n      dup3\n        /* \"#utility.yul\":1257:1264   */\n      dup5\n        /* \"#utility.yul\":1253:1276   */\n      sub\n        /* \"#utility.yul\":1249:1281   */\n      slt\n        /* \"#utility.yul\":1246:1365   */\n      iszero\n      tag_54\n      jumpi\n        /* \"#utility.yul\":1284:1363   */\n      tag_55\n      tag_27\n      jump\t// in\n    tag_55:\n        /* \"#utility.yul\":1246:1365   */\n    tag_54:\n        /* \"#utility.yul\":1404:1405   */\n      0x00\n        /* \"#utility.yul\":1429:1482   */\n      tag_56\n        /* \"#utility.yul\":1474:1481   */\n      dup5\n        /* \"#utility.yul\":1465:1471   */\n      dup3\n        /* \"#utility.yul\":1454:1463   */\n      dup6\n        /* \"#utility.yul\":1450:1472   */\n      add\n        /* \"#utility.yul\":1429:1482   */\n      tag_31\n      jump\t// in\n    tag_56:\n        /* \"#utility.yul\":1419:1482   */\n      swap2\n      pop\n        /* \"#utility.yul\":1375:1492   */\n      pop\n        /* \"#utility.yul\":1170:1499   */\n      swap3\n      swap2\n      pop\n      pop\n      jump\t// out\n        /* \"#utility.yul\":1505:1631   */\n    tag_32:\n        /* \"#utility.yul\":1542:1549   */\n      0x00\n        /* \"#utility.yul\":1582:1624   */\n      0xffffffffffffffffffffffffffffffffffffffff\n        /* \"#utility.yul\":1575:1580   */\n      dup3\n        /* \"#utility.yul\":1571:1625   */\n      and\n        /* \"#utility.yul\":1560:1625   */\n      swap1\n      pop\n        /* \"#utility.yul\":1505:1631   */\n      swap2\n      swap1\n      pop\n      jump\t// out\n        /* \"#utility.yul\":1637:1697   */\n    tag_33:\n        /* \"#utility.yul\":1665:1668   */\n      0x00\n        /* \"#utility.yul\":1686:1691   */\n      dup2\n        /* \"#utility.yul\":1679:1691   */\n      swap1\n      pop\n        /* \"#utility.yul\":1637:1697   */\n      swap2\n      swap1\n      pop\n      jump\t// out\n        /* \"#utility.yul\":1703:1845   */\n    tag_34:\n        /* \"#utility.yul\":1753:1762   */\n      0x00\n        /* \"#utility.yul\":1786:1839   */\n      tag_60\n        /* \"#utility.yul\":1804:1838   */\n      tag_61\n        /* \"#utility.yul\":1813:1837   */\n      tag_62\n        /* \"#utility.yul\":1831:1836   */\n      dup5\n        /* \"#utility.yul\":1813:1837   */\n      tag_32\n      jump\t// in\n    tag_62:\n        /* \"#utility.yul\":1804:1838   */\n      tag_33\n      jump\t// in\n    tag_61:\n        /* \"#utility.yul\":1786:1839   */\n      tag_32\n      jump\t// in\n    tag_60:\n        /* \"#utility.yul\":1773:1839   */\n      swap1\n      pop\n        /* \"#utility.yul\":1703:1845   */\n      swap2\n      swap1\n      pop\n      jump\t// out\n        /* \"#utility.yul\":1851:1977   */\n    tag_35:\n        /* \"#utility.yul\":1901:1910   */\n      0x00\n        /* \"#utility.yul\":1934:1971   */\n      tag_64\n        /* \"#utility.yul\":1965:1970   */\n      dup3\n        /* \"#utility.yul\":1934:1971   */\n      tag_34\n      jump\t// in\n    tag_64:\n        /* \"#utility.yul\":1921:1971   */\n      swap1\n      pop\n        /* \"#utility.yul\":1851:1977   */\n      swap2\n      swap1\n      pop\n      jump\t// out\n        /* \"#utility.yul\":1983:2129   */\n    tag_36:\n        /* \"#utility.yul\":2053:2062   */\n      0x00\n        /* \"#utility.yul\":2086:2123   */\n      tag_66\n        /* \"#utility.yul\":2117:2122   */\n      dup3\n        /* \"#utility.yul\":2086:2123   */\n      tag_35\n      jump\t// in\n    tag_66:\n        /* \"#utility.yul\":2073:2123   */\n      swap1\n      pop\n        /* \"#utility.yul\":1983:2129   */\n      swap2\n      swap1\n      pop\n      jump\t// out\n        /* \"#utility.yul\":2135:2306   */\n    tag_37:\n        /* \"#utility.yul\":2242:2299   */\n      tag_68\n        /* \"#utility.yul\":2293:2298   */\n      dup2\n        /* \"#utility.yul\":2242:2299   */\n      tag_36\n      jump\t// in\n    tag_68:\n        /* \"#utility.yul\":2237:2240   */\n      dup3\n        /* \"#utility.yul\":2230:2300   */\n      mstore\n        /* \"#utility.yul\":2135:2306   */\n      pop\n      pop\n      jump\t// out\n        /* \"#utility.yul\":2312:2574   */\n    tag_17:\n        /* \"#utility.yul\":2425:2429   */\n      0x00\n        /* \"#utility.yul\":2463:2465   */\n      0x20\n        /* \"#utility.yul\":2452:2461   */\n      dup3\n        /* \"#utility.yul\":2448:2466   */\n      add\n        /* \"#utility.yul\":2440:2466   */\n      swap1\n      pop\n        /* \"#utility.yul\":2476:2567   */\n      tag_70\n        /* \"#utility.yul\":2564:2565   */\n      0x00\n        /* \"#utility.yul\":2553:2562   */\n      dup4\n        /* \"#utility.yul\":2549:2566   */\n      add\n        /* \"#utility.yul\":2540:2546   */\n      dup5\n        /* \"#utility.yul\":2476:2567   */\n      tag_37\n      jump\t// in\n    tag_70:\n        /* \"#utility.yul\":2312:2574   */\n      swap3\n      swap2\n      pop\n      pop\n      jump\t// out\n    stop\n\n    sub_0: assembly {\n            /* \"contracts/SimpleStorage.sol\":60:900  contract SimpleStorage {... */\n          mstore(0x40, 0x80)\n          callvalue\n          dup1\n          iszero\n          tag_1\n          jumpi\n          0x00\n          dup1\n          revert\n        tag_1:\n          pop\n          dataSize(sub_0)\n          dup1\n          dataOffset(sub_0)\n          0x00\n          codecopy\n          0x00\n          return\n        stop\n\n        sub_0: assembly {\n                /* \"contracts/SimpleStorage.sol\":60:900  contract SimpleStorage {... */\n              mstore(0x40, 0x80)\n              callvalue\n              dup1\n              iszero\n              tag_1\n              jumpi\n              0x00\n              dup1\n              revert\n            tag_1:\n              pop\n              jumpi(tag_2, lt(calldatasize, 0x04))\n              shr(0xe0, calldataload(0x00))\n              dup1\n              0x2e64cec1\n              eq\n              tag_3\n              jumpi\n              dup1\n              0x2fae4ffd\n              eq\n              tag_4\n              jumpi\n              dup1\n              0x6057361d\n              eq\n              tag_5\n              jumpi\n              dup1\n              0x6f760f41\n              eq\n              tag_6\n              jumpi\n              dup1\n              0x9e7a13ad\n              eq\n              tag_7\n              jumpi\n            tag_2:\n              0x00\n              dup1\n              revert\n                /* \"contracts/SimpleStorage.sol\":820:897  function retrieve() public view returns(uint256){... */\n            tag_3:\n              tag_8\n              tag_9\n              jump\t// in\n            tag_8:\n              mload(0x40)\n              tag_10\n              swap2\n              swap1\n              tag_11\n              jump\t// in\n            tag_10:\n              mload(0x40)\n              dup1\n              swap2\n              sub\n              swap1\n              return\n                /* \"contracts/SimpleStorage.sol\":226:272  mapping(string => uint256) public nameToNumber */\n            tag_4:\n              tag_12\n              0x04\n              dup1\n              calldatasize\n              sub\n              dup2\n              add\n              swap1\n              tag_13\n              swap2\n              swap1\n              tag_14\n              jump\t// in\n            tag_13:\n              tag_15\n              jump\t// in\n            tag_12:\n              mload(0x40)\n              tag_16\n              swap2\n              swap1\n              tag_11\n              jump\t// in\n            tag_16:\n              mload(0x40)\n              dup1\n              swap2\n              sub\n              swap1\n              return\n                /* \"contracts/SimpleStorage.sol\":442:507  function store(uint256 _num) public {... */\n            tag_5:\n              tag_17\n              0x04\n              dup1\n              calldatasize\n              sub\n              dup2\n              add\n              swap1\n              tag_18\n              swap2\n              swap1\n              tag_19\n              jump\t// in\n            tag_18:\n              tag_20\n              jump\t// in\n            tag_17:\n              stop\n                /* \"contracts/SimpleStorage.sol\":281:432  function addPerson(string calldata _name, uint256 _num) public {... */\n            tag_6:\n              tag_21\n              0x04\n              dup1\n              calldatasize\n              sub\n              dup2\n              add\n              swap1\n              tag_22\n              swap2\n              swap1\n              tag_23\n              jump\t// in\n            tag_22:\n              tag_24\n              jump\t// in\n            tag_21:\n              stop\n                /* \"contracts/SimpleStorage.sol\":119:141  People[] public people */\n            tag_7:\n              tag_25\n              0x04\n              dup1\n              calldatasize\n              sub\n              dup2\n              add\n              swap1\n              tag_26\n              swap2\n              swap1\n              tag_19\n              jump\t// in\n            tag_26:\n              tag_27\n              jump\t// in\n            tag_25:\n              mload(0x40)\n              tag_28\n              swap3\n              swap2\n              swap1\n              tag_29\n              jump\t// in\n            tag_28:\n              mload(0x40)\n              dup1\n              swap2\n              sub\n              swap1\n              return\n                /* \"contracts/SimpleStorage.sol\":820:897  function retrieve() public view returns(uint256){... */\n            tag_9:\n                /* \"contracts/SimpleStorage.sol\":860:867  uint256 */\n              0x00\n                /* \"contracts/SimpleStorage.sol\":886:889  num */\n              dup1\n              sload\n                /* \"contracts/SimpleStorage.sol\":879:889  return num */\n              swap1\n              pop\n                /* \"contracts/SimpleStorage.sol\":820:897  function retrieve() public view returns(uint256){... */\n              swap1\n              jump\t// out\n                /* \"contracts/SimpleStorage.sol\":226:272  mapping(string => uint256) public nameToNumber */\n            tag_15:\n              0x02\n              dup2\n              dup1\n              mload\n              0x20\n              dup2\n              add\n              dup3\n              add\n              dup1\n              mload\n              dup5\n              dup3\n              mstore\n              0x20\n              dup4\n              add\n              0x20\n              dup6\n              add\n              keccak256\n              dup2\n              dup4\n              mstore\n              dup1\n              swap6\n              pop\n              pop\n              pop\n              pop\n              pop\n              pop\n              0x00\n              swap2\n              pop\n              swap1\n              pop\n              sload\n              dup2\n              jump\t// out\n                /* \"contracts/SimpleStorage.sol\":442:507  function store(uint256 _num) public {... */\n            tag_20:\n                /* \"contracts/SimpleStorage.sol\":495:499  _num */\n              dup1\n                /* \"contracts/SimpleStorage.sol\":489:492  num */\n              0x00\n                /* \"contracts/SimpleStorage.sol\":489:499  num = _num */\n              dup2\n              swap1\n              sstore\n              pop\n                /* \"contracts/SimpleStorage.sol\":442:507  function store(uint256 _num) public {... */\n              pop\n              jump\t// out\n                /* \"contracts/SimpleStorage.sol\":281:432  function addPerson(string calldata _name, uint256 _num) public {... */\n            tag_24:\n                /* \"contracts/SimpleStorage.sol\":355:361  people */\n              0x01\n                /* \"contracts/SimpleStorage.sol\":367:386  People(_num, _name) */\n              mload(0x40)\n              dup1\n              0x40\n              add\n              0x40\n              mstore\n              dup1\n                /* \"contracts/SimpleStorage.sol\":374:378  _num */\n              dup4\n                /* \"contracts/SimpleStorage.sol\":367:386  People(_num, _name) */\n              dup2\n              mstore\n              0x20\n              add\n                /* \"contracts/SimpleStorage.sol\":380:385  _name */\n              dup6\n              dup6\n                /* \"contracts/SimpleStorage.sol\":367:386  People(_num, _name) */\n              dup1\n              dup1\n              0x1f\n              add\n              0x20\n              dup1\n              swap2\n              div\n              mul\n              0x20\n              add\n              mload(0x40)\n              swap1\n              dup2\n              add\n              0x40\n              mstore\n              dup1\n              swap4\n              swap3\n              swap2\n              swap1\n              dup2\n              dup2\n              mstore\n              0x20\n              add\n              dup4\n              dup4\n              dup1\n              dup3\n              dup5\n              calldatacopy\n              0x00\n              dup2\n              dup5\n              add\n              mstore\n              not(0x1f)\n              0x1f\n              dup3\n              add\n              and\n              swap1\n              pop\n              dup1\n              dup4\n              add\n              swap3\n              pop\n              pop\n              pop\n              pop\n              pop\n              pop\n              pop\n              dup2\n              mstore\n              pop\n                /* \"contracts/SimpleStorage.sol\":355:387  people.push(People(_num, _name)) */\n              swap1\n              dup1\n              0x01\n              dup2\n              sload\n              add\n              dup1\n              dup3\n              sstore\n              dup1\n              swap2\n              pop\n              pop\n              0x01\n              swap1\n              sub\n              swap1\n              0x00\n              mstore\n              keccak256(0x00, 0x20)\n              swap1\n              0x02\n              mul\n              add\n              0x00\n              swap1\n              swap2\n              swap1\n              swap2\n              swap1\n              swap2\n              pop\n              0x00\n              dup3\n              add\n              mload\n              dup2\n              0x00\n              add\n              sstore\n              0x20\n              dup3\n              add\n              mload\n              dup2\n              0x01\n              add\n              swap1\n              dup1\n              mload\n              swap1\n              0x20\n              add\n              swap1\n              tag_34\n              swap3\n              swap2\n              swap1\n              tag_35\n              jump\t// in\n            tag_34:\n              pop\n              pop\n              pop\n                /* \"contracts/SimpleStorage.sol\":420:424  _num */\n              dup1\n                /* \"contracts/SimpleStorage.sol\":398:410  nameToNumber */\n              0x02\n                /* \"contracts/SimpleStorage.sol\":411:416  _name */\n              dup5\n              dup5\n                /* \"contracts/SimpleStorage.sol\":398:417  nameToNumber[_name] */\n              mload(0x40)\n              tag_36\n              swap3\n              swap2\n              swap1\n              tag_37\n              jump\t// in\n            tag_36:\n              swap1\n              dup2\n              mstore\n              0x20\n              add\n              mload(0x40)\n              dup1\n              swap2\n              sub\n              swap1\n              keccak256\n                /* \"contracts/SimpleStorage.sol\":398:424  nameToNumber[_name] = _num */\n              dup2\n              swap1\n              sstore\n              pop\n                /* \"contracts/SimpleStorage.sol\":281:432  function addPerson(string calldata _name, uint256 _num) public {... */\n              pop\n              pop\n              pop\n              jump\t// out\n                /* \"contracts/SimpleStorage.sol\":119:141  People[] public people */\n            tag_27:\n              0x01\n              dup2\n              dup2\n              sload\n              dup2\n              lt\n              tag_38\n              jumpi\n              0x00\n              dup1\n              revert\n            tag_38:\n              swap1\n              0x00\n              mstore\n              keccak256(0x00, 0x20)\n              swap1\n              0x02\n              mul\n              add\n              0x00\n              swap2\n              pop\n              swap1\n              pop\n              dup1\n              0x00\n              add\n              sload\n              swap1\n              dup1\n              0x01\n              add\n              dup1\n              sload\n              tag_40\n              swap1\n              tag_41\n              jump\t// in\n            tag_40:\n              dup1\n              0x1f\n              add\n              0x20\n              dup1\n              swap2\n              div\n              mul\n              0x20\n              add\n              mload(0x40)\n              swap1\n              dup2\n              add\n              0x40\n              mstore\n              dup1\n              swap3\n              swap2\n              swap1\n              dup2\n              dup2\n              mstore\n              0x20\n              add\n              dup3\n              dup1\n              sload\n              tag_42\n              swap1\n              tag_41\n              jump\t// in\n            tag_42:\n              dup1\n              iszero\n              tag_43\n              jumpi\n              dup1\n              0x1f\n              lt\n              tag_44\n              jumpi\n              0x0100\n              dup1\n              dup4\n              sload\n              div\n              mul\n              dup4\n              mstore\n              swap2\n              0x20\n              add\n              swap2\n              jump(tag_43)\n            tag_44:\n              dup3\n              add\n              swap2\n              swap1\n              0x00\n              mstore\n              keccak256(0x00, 0x20)\n              swap1\n            tag_45:\n              dup2\n              sload\n              dup2\n              mstore\n              swap1\n              0x01\n              add\n              swap1\n              0x20\n              add\n              dup1\n              dup4\n              gt\n              tag_45\n              jumpi\n              dup3\n              swap1\n              sub\n              0x1f\n              and\n              dup3\n              add\n              swap2\n            tag_43:\n              pop\n              pop\n              pop\n              pop\n              pop\n              swap1\n              pop\n              dup3\n              jump\t// out\n            tag_35:\n              dup3\n              dup1\n              sload\n              tag_46\n              swap1\n              tag_41\n              jump\t// in\n            tag_46:\n              swap1\n              0x00\n              mstore\n              keccak256(0x00, 0x20)\n              swap1\n              0x1f\n              add\n              0x20\n              swap1\n              div\n              dup2\n              add\n              swap3\n              dup3\n              tag_48\n              jumpi\n              0x00\n              dup6\n              sstore\n              jump(tag_47)\n            tag_48:\n              dup3\n              0x1f\n              lt\n              tag_49\n              jumpi\n              dup1\n              mload\n              not(0xff)\n              and\n              dup4\n              dup1\n              add\n              or\n              dup6\n              sstore\n              jump(tag_47)\n            tag_49:\n              dup3\n              dup1\n              add\n              0x01\n              add\n              dup6\n              sstore\n              dup3\n              iszero\n              tag_47\n              jumpi\n              swap2\n              dup3\n              add\n            tag_50:\n              dup3\n              dup2\n              gt\n              iszero\n              tag_51\n              jumpi\n              dup3\n              mload\n              dup3\n              sstore\n              swap2\n              0x20\n              add\n              swap2\n              swap1\n              0x01\n              add\n              swap1\n              jump(tag_50)\n            tag_51:\n            tag_47:\n              pop\n              swap1\n              pop\n              tag_52\n              swap2\n              swap1\n              tag_53\n              jump\t// in\n            tag_52:\n              pop\n              swap1\n              jump\t// out\n            tag_53:\n            tag_54:\n              dup1\n              dup3\n              gt\n              iszero\n              tag_55\n              jumpi\n              0x00\n              dup2\n              0x00\n              swap1\n              sstore\n              pop\n              0x01\n              add\n              jump(tag_54)\n            tag_55:\n              pop\n              swap1\n              jump\t// out\n                /* \"#utility.yul\":7:84   */\n            tag_56:\n                /* \"#utility.yul\":44:51   */\n              0x00\n                /* \"#utility.yul\":73:78   */\n              dup2\n                /* \"#utility.yul\":62:78   */\n              swap1\n              pop\n                /* \"#utility.yul\":7:84   */\n              swap2\n              swap1\n              pop\n              jump\t// out\n                /* \"#utility.yul\":90:208   */\n            tag_57:\n                /* \"#utility.yul\":177:201   */\n              tag_86\n                /* \"#utility.yul\":195:200   */\n              dup2\n                /* \"#utility.yul\":177:201   */\n              tag_56\n              jump\t// in\n            tag_86:\n                /* \"#utility.yul\":172:175   */\n              dup3\n                /* \"#utility.yul\":165:202   */\n              mstore\n                /* \"#utility.yul\":90:208   */\n              pop\n              pop\n              jump\t// out\n                /* \"#utility.yul\":214:436   */\n            tag_11:\n                /* \"#utility.yul\":307:311   */\n              0x00\n                /* \"#utility.yul\":345:347   */\n              0x20\n                /* \"#utility.yul\":334:343   */\n              dup3\n                /* \"#utility.yul\":330:348   */\n              add\n                /* \"#utility.yul\":322:348   */\n              swap1\n              pop\n                /* \"#utility.yul\":358:429   */\n              tag_88\n                /* \"#utility.yul\":426:427   */\n              0x00\n                /* \"#utility.yul\":415:424   */\n              dup4\n                /* \"#utility.yul\":411:428   */\n              add\n                /* \"#utility.yul\":402:408   */\n              dup5\n                /* \"#utility.yul\":358:429   */\n              tag_57\n              jump\t// in\n            tag_88:\n                /* \"#utility.yul\":214:436   */\n              swap3\n              swap2\n              pop\n              pop\n              jump\t// out\n                /* \"#utility.yul\":442:517   */\n            tag_58:\n                /* \"#utility.yul\":475:481   */\n              0x00\n                /* \"#utility.yul\":508:510   */\n              0x40\n                /* \"#utility.yul\":502:511   */\n              mload\n                /* \"#utility.yul\":492:511   */\n              swap1\n              pop\n                /* \"#utility.yul\":442:517   */\n              swap1\n              jump\t// out\n                /* \"#utility.yul\":523:640   */\n            tag_59:\n                /* \"#utility.yul\":632:633   */\n              0x00\n                /* \"#utility.yul\":629:630   */\n              dup1\n                /* \"#utility.yul\":622:634   */\n              revert\n                /* \"#utility.yul\":646:763   */\n            tag_60:\n                /* \"#utility.yul\":755:756   */\n              0x00\n                /* \"#utility.yul\":752:753   */\n              dup1\n                /* \"#utility.yul\":745:757   */\n              revert\n                /* \"#utility.yul\":769:886   */\n            tag_61:\n                /* \"#utility.yul\":878:879   */\n              0x00\n                /* \"#utility.yul\":875:876   */\n              dup1\n                /* \"#utility.yul\":868:880   */\n              revert\n                /* \"#utility.yul\":892:1009   */\n            tag_62:\n                /* \"#utility.yul\":1001:1002   */\n              0x00\n                /* \"#utility.yul\":998:999   */\n              dup1\n                /* \"#utility.yul\":991:1003   */\n              revert\n                /* \"#utility.yul\":1015:1117   */\n            tag_63:\n                /* \"#utility.yul\":1056:1062   */\n              0x00\n                /* \"#utility.yul\":1107:1109   */\n              0x1f\n                /* \"#utility.yul\":1103:1110   */\n              not\n                /* \"#utility.yul\":1098:1100   */\n              0x1f\n                /* \"#utility.yul\":1091:1096   */\n              dup4\n                /* \"#utility.yul\":1087:1101   */\n              add\n                /* \"#utility.yul\":1083:1111   */\n              and\n                /* \"#utility.yul\":1073:1111   */\n              swap1\n              pop\n                /* \"#utility.yul\":1015:1117   */\n              swap2\n              swap1\n              pop\n              jump\t// out\n                /* \"#utility.yul\":1123:1303   */\n            tag_64:\n                /* \"#utility.yul\":1171:1248   */\n              0x4e487b7100000000000000000000000000000000000000000000000000000000\n                /* \"#utility.yul\":1168:1169   */\n              0x00\n                /* \"#utility.yul\":1161:1249   */\n              mstore\n                /* \"#utility.yul\":1268:1272   */\n              0x41\n                /* \"#utility.yul\":1265:1266   */\n              0x04\n                /* \"#utility.yul\":1258:1273   */\n              mstore\n                /* \"#utility.yul\":1292:1296   */\n              0x24\n                /* \"#utility.yul\":1289:1290   */\n              0x00\n                /* \"#utility.yul\":1282:1297   */\n              revert\n                /* \"#utility.yul\":1309:1590   */\n            tag_65:\n                /* \"#utility.yul\":1392:1419   */\n              tag_97\n                /* \"#utility.yul\":1414:1418   */\n              dup3\n                /* \"#utility.yul\":1392:1419   */\n              tag_63\n              jump\t// in\n            tag_97:\n                /* \"#utility.yul\":1384:1390   */\n              dup2\n                /* \"#utility.yul\":1380:1420   */\n              add\n                /* \"#utility.yul\":1522:1528   */\n              dup2\n                /* \"#utility.yul\":1510:1520   */\n              dup2\n                /* \"#utility.yul\":1507:1529   */\n              lt\n                /* \"#utility.yul\":1486:1504   */\n              0xffffffffffffffff\n                /* \"#utility.yul\":1474:1484   */\n              dup3\n                /* \"#utility.yul\":1471:1505   */\n              gt\n                /* \"#utility.yul\":1468:1530   */\n              or\n                /* \"#utility.yul\":1465:1553   */\n              iszero\n              tag_98\n              jumpi\n                /* \"#utility.yul\":1533:1551   */\n              tag_99\n              tag_64\n              jump\t// in\n            tag_99:\n                /* \"#utility.yul\":1465:1553   */\n            tag_98:\n                /* \"#utility.yul\":1573:1583   */\n              dup1\n                /* \"#utility.yul\":1569:1571   */\n              0x40\n                /* \"#utility.yul\":1562:1584   */\n              mstore\n                /* \"#utility.yul\":1352:1590   */\n              pop\n                /* \"#utility.yul\":1309:1590   */\n              pop\n              pop\n              jump\t// out\n                /* \"#utility.yul\":1596:1725   */\n            tag_66:\n                /* \"#utility.yul\":1630:1636   */\n              0x00\n                /* \"#utility.yul\":1657:1677   */\n              tag_101\n              tag_58\n              jump\t// in\n            tag_101:\n                /* \"#utility.yul\":1647:1677   */\n              swap1\n              pop\n                /* \"#utility.yul\":1686:1719   */\n              tag_102\n                /* \"#utility.yul\":1714:1718   */\n              dup3\n                /* \"#utility.yul\":1706:1712   */\n              dup3\n                /* \"#utility.yul\":1686:1719   */\n              tag_65\n              jump\t// in\n            tag_102:\n                /* \"#utility.yul\":1596:1725   */\n              swap2\n              swap1\n              pop\n              jump\t// out\n                /* \"#utility.yul\":1731:2039   */\n            tag_67:\n                /* \"#utility.yul\":1793:1797   */\n              0x00\n                /* \"#utility.yul\":1883:1901   */\n              0xffffffffffffffff\n                /* \"#utility.yul\":1875:1881   */\n              dup3\n                /* \"#utility.yul\":1872:1902   */\n              gt\n                /* \"#utility.yul\":1869:1925   */\n              iszero\n              tag_104\n              jumpi\n                /* \"#utility.yul\":1905:1923   */\n              tag_105\n              tag_64\n              jump\t// in\n            tag_105:\n                /* \"#utility.yul\":1869:1925   */\n            tag_104:\n                /* \"#utility.yul\":1943:1972   */\n              tag_106\n                /* \"#utility.yul\":1965:1971   */\n              dup3\n                /* \"#utility.yul\":1943:1972   */\n              tag_63\n              jump\t// in\n            tag_106:\n                /* \"#utility.yul\":1935:1972   */\n              swap1\n              pop\n                /* \"#utility.yul\":2027:2031   */\n              0x20\n                /* \"#utility.yul\":2021:2025   */\n              dup2\n                /* \"#utility.yul\":2017:2032   */\n              add\n                /* \"#utility.yul\":2009:2032   */\n              swap1\n              pop\n                /* \"#utility.yul\":1731:2039   */\n              swap2\n              swap1\n              pop\n              jump\t// out\n                /* \"#utility.yul\":2045:2199   */\n            tag_68:\n                /* \"#utility.yul\":2129:2135   */\n              dup3\n                /* \"#utility.yul\":2124:2127   */\n              dup2\n                /* \"#utility.yul\":2119:2122   */\n              dup4\n                /* \"#utility.yul\":2106:2136   */\n              calldatacopy\n                /* \"#utility.yul\":2191:2192   */\n              0x00\n                /* \"#utility.yul\":2182:2188   */\n              dup4\n                /* \"#utility.yul\":2177:2180   */\n              dup4\n                /* \"#utility.yul\":2173:2189   */\n              add\n                /* \"#utility.yul\":2166:2193   */\n              mstore\n                /* \"#utility.yul\":2045:2199   */\n              pop\n              pop\n              pop\n              jump\t// out\n                /* \"#utility.yul\":2205:2617   */\n            tag_69:\n                /* \"#utility.yul\":2283:2288   */\n              0x00\n                /* \"#utility.yul\":2308:2374   */\n              tag_109\n                /* \"#utility.yul\":2324:2373   */\n              tag_110\n                /* \"#utility.yul\":2366:2372   */\n              dup5\n                /* \"#utility.yul\":2324:2373   */\n              tag_67\n              jump\t// in\n            tag_110:\n                /* \"#utility.yul\":2308:2374   */\n              tag_66\n              jump\t// in\n            tag_109:\n                /* \"#utility.yul\":2299:2374   */\n              swap1\n              pop\n                /* \"#utility.yul\":2397:2403   */\n              dup3\n                /* \"#utility.yul\":2390:2395   */\n              dup2\n                /* \"#utility.yul\":2383:2404   */\n              mstore\n                /* \"#utility.yul\":2435:2439   */\n              0x20\n                /* \"#utility.yul\":2428:2433   */\n              dup2\n                /* \"#utility.yul\":2424:2440   */\n              add\n                /* \"#utility.yul\":2473:2476   */\n              dup5\n                /* \"#utility.yul\":2464:2470   */\n              dup5\n                /* \"#utility.yul\":2459:2462   */\n              dup5\n                /* \"#utility.yul\":2455:2471   */\n              add\n                /* \"#utility.yul\":2452:2477   */\n              gt\n                /* \"#utility.yul\":2449:2561   */\n              iszero\n              tag_111\n              jumpi\n                /* \"#utility.yul\":2480:2559   */\n              tag_112\n              tag_62\n              jump\t// in\n            tag_112:\n                /* \"#utility.yul\":2449:2561   */\n            tag_111:\n                /* \"#utility.yul\":2570:2611   */\n              tag_113\n                /* \"#utility.yul\":2604:2610   */\n              dup5\n                /* \"#utility.yul\":2599:2602   */\n              dup3\n                /* \"#utility.yul\":2594:2597   */\n              dup6\n                /* \"#utility.yul\":2570:2611   */\n              tag_68\n              jump\t// in\n            tag_113:\n                /* \"#utility.yul\":2289:2617   */\n              pop\n                /* \"#utility.yul\":2205:2617   */\n              swap4\n              swap3\n              pop\n              pop\n              pop\n              jump\t// out\n                /* \"#utility.yul\":2637:2977   */\n            tag_70:\n                /* \"#utility.yul\":2693:2698   */\n              0x00\n                /* \"#utility.yul\":2742:2745   */\n              dup3\n                /* \"#utility.yul\":2735:2739   */\n              0x1f\n                /* \"#utility.yul\":2727:2733   */\n              dup4\n                /* \"#utility.yul\":2723:2740   */\n              add\n                /* \"#utility.yul\":2719:2746   */\n              slt\n                /* \"#utility.yul\":2709:2831   */\n              tag_115\n              jumpi\n                /* \"#utility.yul\":2750:2829   */\n              tag_116\n              tag_61\n              jump\t// in\n            tag_116:\n                /* \"#utility.yul\":2709:2831   */\n            tag_115:\n                /* \"#utility.yul\":2867:2873   */\n              dup2\n                /* \"#utility.yul\":2854:2874   */\n              calldataload\n                /* \"#utility.yul\":2892:2971   */\n              tag_117\n                /* \"#utility.yul\":2967:2970   */\n              dup5\n                /* \"#utility.yul\":2959:2965   */\n              dup3\n                /* \"#utility.yul\":2952:2956   */\n              0x20\n                /* \"#utility.yul\":2944:2950   */\n              dup7\n                /* \"#utility.yul\":2940:2957   */\n              add\n                /* \"#utility.yul\":2892:2971   */\n              tag_69\n              jump\t// in\n            tag_117:\n                /* \"#utility.yul\":2883:2971   */\n              swap2\n              pop\n                /* \"#utility.yul\":2699:2977   */\n              pop\n                /* \"#utility.yul\":2637:2977   */\n              swap3\n              swap2\n              pop\n              pop\n              jump\t// out\n                /* \"#utility.yul\":2983:3492   */\n            tag_14:\n                /* \"#utility.yul\":3052:3058   */\n              0x00\n                /* \"#utility.yul\":3101:3103   */\n              0x20\n                /* \"#utility.yul\":3089:3098   */\n              dup3\n                /* \"#utility.yul\":3080:3087   */\n              dup5\n                /* \"#utility.yul\":3076:3099   */\n              sub\n                /* \"#utility.yul\":3072:3104   */\n              slt\n                /* \"#utility.yul\":3069:3188   */\n              iszero\n              tag_119\n              jumpi\n                /* \"#utility.yul\":3107:3186   */\n              tag_120\n              tag_59\n              jump\t// in\n            tag_120:\n                /* \"#utility.yul\":3069:3188   */\n            tag_119:\n                /* \"#utility.yul\":3255:3256   */\n              0x00\n                /* \"#utility.yul\":3244:3253   */\n              dup3\n                /* \"#utility.yul\":3240:3257   */\n              add\n                /* \"#utility.yul\":3227:3258   */\n              calldataload\n                /* \"#utility.yul\":3285:3303   */\n              0xffffffffffffffff\n                /* \"#utility.yul\":3277:3283   */\n              dup2\n                /* \"#utility.yul\":3274:3304   */\n              gt\n                /* \"#utility.yul\":3271:3388   */\n              iszero\n              tag_121\n              jumpi\n                /* \"#utility.yul\":3307:3386   */\n              tag_122\n              tag_60\n              jump\t// in\n            tag_122:\n                /* \"#utility.yul\":3271:3388   */\n            tag_121:\n                /* \"#utility.yul\":3412:3475   */\n              tag_123\n                /* \"#utility.yul\":3467:3474   */\n              dup5\n                /* \"#utility.yul\":3458:3464   */\n              dup3\n                /* \"#utility.yul\":3447:3456   */\n              dup6\n                /* \"#utility.yul\":3443:3465   */\n              add\n                /* \"#utility.yul\":3412:3475   */\n              tag_70\n              jump\t// in\n            tag_123:\n                /* \"#utility.yul\":3402:3475   */\n              swap2\n              pop\n                /* \"#utility.yul\":3198:3485   */\n              pop\n                /* \"#utility.yul\":2983:3492   */\n              swap3\n              swap2\n              pop\n              pop\n              jump\t// out\n                /* \"#utility.yul\":3498:3620   */\n            tag_71:\n                /* \"#utility.yul\":3571:3595   */\n              tag_125\n                /* \"#utility.yul\":3589:3594   */\n              dup2\n                /* \"#utility.yul\":3571:3595   */\n              tag_56\n              jump\t// in\n            tag_125:\n                /* \"#utility.yul\":3564:3569   */\n              dup2\n                /* \"#utility.yul\":3561:3596   */\n              eq\n                /* \"#utility.yul\":3551:3614   */\n              tag_126\n              jumpi\n                /* \"#utility.yul\":3610:3611   */\n              0x00\n                /* \"#utility.yul\":3607:3608   */\n              dup1\n                /* \"#utility.yul\":3600:3612   */\n              revert\n                /* \"#utility.yul\":3551:3614   */\n            tag_126:\n                /* \"#utility.yul\":3498:3620   */\n              pop\n              jump\t// out\n                /* \"#utility.yul\":3626:3765   */\n            tag_72:\n                /* \"#utility.yul\":3672:3677   */\n              0x00\n                /* \"#utility.yul\":3710:3716   */\n              dup2\n                /* \"#utility.yul\":3697:3717   */\n              calldataload\n                /* \"#utility.yul\":3688:3717   */\n              swap1\n              pop\n                /* \"#utility.yul\":3726:3759   */\n              tag_128\n                /* \"#utility.yul\":3753:3758   */\n              dup2\n                /* \"#utility.yul\":3726:3759   */\n              tag_71\n              jump\t// in\n            tag_128:\n                /* \"#utility.yul\":3626:3765   */\n              swap3\n              swap2\n              pop\n              pop\n              jump\t// out\n                /* \"#utility.yul\":3771:4100   */\n            tag_19:\n                /* \"#utility.yul\":3830:3836   */\n              0x00\n                /* \"#utility.yul\":3879:3881   */\n              0x20\n                /* \"#utility.yul\":3867:3876   */\n              dup3\n                /* \"#utility.yul\":3858:3865   */\n              dup5\n                /* \"#utility.yul\":3854:3877   */\n              sub\n                /* \"#utility.yul\":3850:3882   */\n              slt\n                /* \"#utility.yul\":3847:3966   */\n              iszero\n              tag_130\n              jumpi\n                /* \"#utility.yul\":3885:3964   */\n              tag_131\n              tag_59\n              jump\t// in\n            tag_131:\n                /* \"#utility.yul\":3847:3966   */\n            tag_130:\n                /* \"#utility.yul\":4005:4006   */\n              0x00\n                /* \"#utility.yul\":4030:4083   */\n              tag_132\n                /* \"#utility.yul\":4075:4082   */\n              dup5\n                /* \"#utility.yul\":4066:4072   */\n              dup3\n                /* \"#utility.yul\":4055:4064   */\n              dup6\n                /* \"#utility.yul\":4051:4073   */\n              add\n                /* \"#utility.yul\":4030:4083   */\n              tag_72\n              jump\t// in\n            tag_132:\n                /* \"#utility.yul\":4020:4083   */\n              swap2\n              pop\n                /* \"#utility.yul\":3976:4093   */\n              pop\n                /* \"#utility.yul\":3771:4100   */\n              swap3\n              swap2\n              pop\n              pop\n              jump\t// out\n                /* \"#utility.yul\":4106:4223   */\n            tag_73:\n                /* \"#utility.yul\":4215:4216   */\n              0x00\n                /* \"#utility.yul\":4212:4213   */\n              dup1\n                /* \"#utility.yul\":4205:4217   */\n              revert\n                /* \"#utility.yul\":4229:4346   */\n            tag_74:\n                /* \"#utility.yul\":4338:4339   */\n              0x00\n                /* \"#utility.yul\":4335:4336   */\n              dup1\n                /* \"#utility.yul\":4328:4340   */\n              revert\n                /* \"#utility.yul\":4366:4919   */\n            tag_75:\n                /* \"#utility.yul\":4424:4432   */\n              0x00\n                /* \"#utility.yul\":4434:4440   */\n              dup1\n                /* \"#utility.yul\":4484:4487   */\n              dup4\n                /* \"#utility.yul\":4477:4481   */\n              0x1f\n                /* \"#utility.yul\":4469:4475   */\n              dup5\n                /* \"#utility.yul\":4465:4482   */\n              add\n                /* \"#utility.yul\":4461:4488   */\n              slt\n                /* \"#utility.yul\":4451:4573   */\n              tag_136\n              jumpi\n                /* \"#utility.yul\":4492:4571   */\n              tag_137\n              tag_61\n              jump\t// in\n            tag_137:\n                /* \"#utility.yul\":4451:4573   */\n            tag_136:\n                /* \"#utility.yul\":4605:4611   */\n              dup3\n                /* \"#utility.yul\":4592:4612   */\n              calldataload\n                /* \"#utility.yul\":4582:4612   */\n              swap1\n              pop\n                /* \"#utility.yul\":4635:4653   */\n              0xffffffffffffffff\n                /* \"#utility.yul\":4627:4633   */\n              dup2\n                /* \"#utility.yul\":4624:4654   */\n              gt\n                /* \"#utility.yul\":4621:4738   */\n              iszero\n              tag_138\n              jumpi\n                /* \"#utility.yul\":4657:4736   */\n              tag_139\n              tag_73\n              jump\t// in\n            tag_139:\n                /* \"#utility.yul\":4621:4738   */\n            tag_138:\n                /* \"#utility.yul\":4771:4775   */\n              0x20\n                /* \"#utility.yul\":4763:4769   */\n              dup4\n                /* \"#utility.yul\":4759:4776   */\n              add\n                /* \"#utility.yul\":4747:4776   */\n              swap2\n              pop\n                /* \"#utility.yul\":4825:4828   */\n              dup4\n                /* \"#utility.yul\":4817:4821   */\n              0x01\n                /* \"#utility.yul\":4809:4815   */\n              dup3\n                /* \"#utility.yul\":4805:4822   */\n              mul\n                /* \"#utility.yul\":4795:4803   */\n              dup4\n                /* \"#utility.yul\":4791:4823   */\n              add\n                /* \"#utility.yul\":4788:4829   */\n              gt\n                /* \"#utility.yul\":4785:4913   */\n              iszero\n              tag_140\n              jumpi\n                /* \"#utility.yul\":4832:4911   */\n              tag_141\n              tag_74\n              jump\t// in\n            tag_141:\n                /* \"#utility.yul\":4785:4913   */\n            tag_140:\n                /* \"#utility.yul\":4366:4919   */\n              swap3\n              pop\n              swap3\n              swap1\n              pop\n              jump\t// out\n                /* \"#utility.yul\":4925:5599   */\n            tag_23:\n                /* \"#utility.yul\":5005:5011   */\n              0x00\n                /* \"#utility.yul\":5013:5019   */\n              dup1\n                /* \"#utility.yul\":5021:5027   */\n              0x00\n                /* \"#utility.yul\":5070:5072   */\n              0x40\n                /* \"#utility.yul\":5058:5067   */\n              dup5\n                /* \"#utility.yul\":5049:5056   */\n              dup7\n                /* \"#utility.yul\":5045:5068   */\n              sub\n                /* \"#utility.yul\":5041:5073   */\n              slt\n                /* \"#utility.yul\":5038:5157   */\n              iszero\n              tag_143\n              jumpi\n                /* \"#utility.yul\":5076:5155   */\n              tag_144\n              tag_59\n              jump\t// in\n            tag_144:\n                /* \"#utility.yul\":5038:5157   */\n            tag_143:\n                /* \"#utility.yul\":5224:5225   */\n              0x00\n                /* \"#utility.yul\":5213:5222   */\n              dup5\n                /* \"#utility.yul\":5209:5226   */\n              add\n                /* \"#utility.yul\":5196:5227   */\n              calldataload\n                /* \"#utility.yul\":5254:5272   */\n              0xffffffffffffffff\n                /* \"#utility.yul\":5246:5252   */\n              dup2\n                /* \"#utility.yul\":5243:5273   */\n              gt\n                /* \"#utility.yul\":5240:5357   */\n              iszero\n              tag_145\n              jumpi\n                /* \"#utility.yul\":5276:5355   */\n              tag_146\n              tag_60\n              jump\t// in\n            tag_146:\n                /* \"#utility.yul\":5240:5357   */\n            tag_145:\n                /* \"#utility.yul\":5389:5454   */\n              tag_147\n                /* \"#utility.yul\":5446:5453   */\n              dup7\n                /* \"#utility.yul\":5437:5443   */\n              dup3\n                /* \"#utility.yul\":5426:5435   */\n              dup8\n                /* \"#utility.yul\":5422:5444   */\n              add\n                /* \"#utility.yul\":5389:5454   */\n              tag_75\n              jump\t// in\n            tag_147:\n                /* \"#utility.yul\":5371:5454   */\n              swap4\n              pop\n              swap4\n              pop\n                /* \"#utility.yul\":5167:5464   */\n              pop\n                /* \"#utility.yul\":5503:5505   */\n              0x20\n                /* \"#utility.yul\":5529:5582   */\n              tag_148\n                /* \"#utility.yul\":5574:5581   */\n              dup7\n                /* \"#utility.yul\":5565:5571   */\n              dup3\n                /* \"#utility.yul\":5554:5563   */\n              dup8\n                /* \"#utility.yul\":5550:5572   */\n              add\n                /* \"#utility.yul\":5529:5582   */\n              tag_72\n              jump\t// in\n            tag_148:\n                /* \"#utility.yul\":5519:5582   */\n              swap2\n              pop\n                /* \"#utility.yul\":5474:5592   */\n              pop\n                /* \"#utility.yul\":4925:5599   */\n              swap3\n              pop\n              swap3\n              pop\n              swap3\n              jump\t// out\n                /* \"#utility.yul\":5605:5704   */\n            tag_76:\n                /* \"#utility.yul\":5657:5663   */\n              0x00\n                /* \"#utility.yul\":5691:5696   */\n              dup2\n                /* \"#utility.yul\":5685:5697   */\n              mload\n                /* \"#utility.yul\":5675:5697   */\n              swap1\n              pop\n                /* \"#utility.yul\":5605:5704   */\n              swap2\n              swap1\n              pop\n              jump\t// out\n                /* \"#utility.yul\":5710:5879   */\n            tag_77:\n                /* \"#utility.yul\":5794:5805   */\n              0x00\n                /* \"#utility.yul\":5828:5834   */\n              dup3\n                /* \"#utility.yul\":5823:5826   */\n              dup3\n                /* \"#utility.yul\":5816:5835   */\n              mstore\n                /* \"#utility.yul\":5868:5872   */\n              0x20\n                /* \"#utility.yul\":5863:5866   */\n              dup3\n                /* \"#utility.yul\":5859:5873   */\n              add\n                /* \"#utility.yul\":5844:5873   */\n              swap1\n              pop\n                /* \"#utility.yul\":5710:5879   */\n              swap3\n              swap2\n              pop\n              pop\n              jump\t// out\n                /* \"#utility.yul\":5885:6192   */\n            tag_78:\n                /* \"#utility.yul\":5953:5954   */\n              0x00\n                /* \"#utility.yul\":5963:6076   */\n            tag_152:\n                /* \"#utility.yul\":5977:5983   */\n              dup4\n                /* \"#utility.yul\":5974:5975   */\n              dup2\n                /* \"#utility.yul\":5971:5984   */\n              lt\n                /* \"#utility.yul\":5963:6076   */\n              iszero\n              tag_154\n              jumpi\n                /* \"#utility.yul\":6062:6063   */\n              dup1\n                /* \"#utility.yul\":6057:6060   */\n              dup3\n                /* \"#utility.yul\":6053:6064   */\n              add\n                /* \"#utility.yul\":6047:6065   */\n              mload\n                /* \"#utility.yul\":6043:6044   */\n              dup2\n                /* \"#utility.yul\":6038:6041   */\n              dup5\n                /* \"#utility.yul\":6034:6045   */\n              add\n                /* \"#utility.yul\":6027:6066   */\n              mstore\n                /* \"#utility.yul\":5999:6001   */\n              0x20\n                /* \"#utility.yul\":5996:5997   */\n              dup2\n                /* \"#utility.yul\":5992:6002   */\n              add\n                /* \"#utility.yul\":5987:6002   */\n              swap1\n              pop\n                /* \"#utility.yul\":5963:6076   */\n              jump(tag_152)\n            tag_154:\n                /* \"#utility.yul\":6094:6100   */\n              dup4\n                /* \"#utility.yul\":6091:6092   */\n              dup2\n                /* \"#utility.yul\":6088:6101   */\n              gt\n                /* \"#utility.yul\":6085:6186   */\n              iszero\n              tag_155\n              jumpi\n                /* \"#utility.yul\":6174:6175   */\n              0x00\n                /* \"#utility.yul\":6165:6171   */\n              dup5\n                /* \"#utility.yul\":6160:6163   */\n              dup5\n                /* \"#utility.yul\":6156:6172   */\n              add\n                /* \"#utility.yul\":6149:6176   */\n              mstore\n                /* \"#utility.yul\":6085:6186   */\n            tag_155:\n                /* \"#utility.yul\":5934:6192   */\n              pop\n                /* \"#utility.yul\":5885:6192   */\n              pop\n              pop\n              pop\n              jump\t// out\n                /* \"#utility.yul\":6198:6562   */\n            tag_79:\n                /* \"#utility.yul\":6286:6289   */\n              0x00\n                /* \"#utility.yul\":6314:6353   */\n              tag_157\n                /* \"#utility.yul\":6347:6352   */\n              dup3\n                /* \"#utility.yul\":6314:6353   */\n              tag_76\n              jump\t// in\n            tag_157:\n                /* \"#utility.yul\":6369:6440   */\n              tag_158\n                /* \"#utility.yul\":6433:6439   */\n              dup2\n                /* \"#utility.yul\":6428:6431   */\n              dup6\n                /* \"#utility.yul\":6369:6440   */\n              tag_77\n              jump\t// in\n            tag_158:\n                /* \"#utility.yul\":6362:6440   */\n              swap4\n              pop\n                /* \"#utility.yul\":6449:6501   */\n              tag_159\n                /* \"#utility.yul\":6494:6500   */\n              dup2\n                /* \"#utility.yul\":6489:6492   */\n              dup6\n                /* \"#utility.yul\":6482:6486   */\n              0x20\n                /* \"#utility.yul\":6475:6480   */\n              dup7\n                /* \"#utility.yul\":6471:6487   */\n              add\n                /* \"#utility.yul\":6449:6501   */\n              tag_78\n              jump\t// in\n            tag_159:\n                /* \"#utility.yul\":6526:6555   */\n              tag_160\n                /* \"#utility.yul\":6548:6554   */\n              dup2\n                /* \"#utility.yul\":6526:6555   */\n              tag_63\n              jump\t// in\n            tag_160:\n                /* \"#utility.yul\":6521:6524   */\n              dup5\n                /* \"#utility.yul\":6517:6556   */\n              add\n                /* \"#utility.yul\":6510:6556   */\n              swap2\n              pop\n                /* \"#utility.yul\":6290:6562   */\n              pop\n                /* \"#utility.yul\":6198:6562   */\n              swap3\n              swap2\n              pop\n              pop\n              jump\t// out\n                /* \"#utility.yul\":6568:6991   */\n            tag_29:\n                /* \"#utility.yul\":6709:6713   */\n              0x00\n                /* \"#utility.yul\":6747:6749   */\n              0x40\n                /* \"#utility.yul\":6736:6745   */\n              dup3\n                /* \"#utility.yul\":6732:6750   */\n              add\n                /* \"#utility.yul\":6724:6750   */\n              swap1\n              pop\n                /* \"#utility.yul\":6760:6831   */\n              tag_162\n                /* \"#utility.yul\":6828:6829   */\n              0x00\n                /* \"#utility.yul\":6817:6826   */\n              dup4\n                /* \"#utility.yul\":6813:6830   */\n              add\n                /* \"#utility.yul\":6804:6810   */\n              dup6\n                /* \"#utility.yul\":6760:6831   */\n              tag_57\n              jump\t// in\n            tag_162:\n                /* \"#utility.yul\":6878:6887   */\n              dup2\n                /* \"#utility.yul\":6872:6876   */\n              dup2\n                /* \"#utility.yul\":6868:6888   */\n              sub\n                /* \"#utility.yul\":6863:6865   */\n              0x20\n                /* \"#utility.yul\":6852:6861   */\n              dup4\n                /* \"#utility.yul\":6848:6866   */\n              add\n                /* \"#utility.yul\":6841:6889   */\n              mstore\n                /* \"#utility.yul\":6906:6984   */\n              tag_163\n                /* \"#utility.yul\":6979:6983   */\n              dup2\n                /* \"#utility.yul\":6970:6976   */\n              dup5\n                /* \"#utility.yul\":6906:6984   */\n              tag_79\n              jump\t// in\n            tag_163:\n                /* \"#utility.yul\":6898:6984   */\n              swap1\n              pop\n                /* \"#utility.yul\":6568:6991   */\n              swap4\n              swap3\n              pop\n              pop\n              pop\n              jump\t// out\n                /* \"#utility.yul\":6997:7145   */\n            tag_80:\n                /* \"#utility.yul\":7099:7110   */\n              0x00\n                /* \"#utility.yul\":7136:7139   */\n              dup2\n                /* \"#utility.yul\":7121:7139   */\n              swap1\n              pop\n                /* \"#utility.yul\":6997:7145   */\n              swap3\n              swap2\n              pop\n              pop\n              jump\t// out\n                /* \"#utility.yul\":7175:7492   */\n            tag_81:\n                /* \"#utility.yul\":7291:7294   */\n              0x00\n                /* \"#utility.yul\":7312:7401   */\n              tag_166\n                /* \"#utility.yul\":7394:7400   */\n              dup4\n                /* \"#utility.yul\":7389:7392   */\n              dup6\n                /* \"#utility.yul\":7312:7401   */\n              tag_80\n              jump\t// in\n            tag_166:\n                /* \"#utility.yul\":7305:7401   */\n              swap4\n              pop\n                /* \"#utility.yul\":7411:7454   */\n              tag_167\n                /* \"#utility.yul\":7447:7453   */\n              dup4\n                /* \"#utility.yul\":7442:7445   */\n              dup6\n                /* \"#utility.yul\":7435:7440   */\n              dup5\n                /* \"#utility.yul\":7411:7454   */\n              tag_68\n              jump\t// in\n            tag_167:\n                /* \"#utility.yul\":7479:7485   */\n              dup3\n                /* \"#utility.yul\":7474:7477   */\n              dup5\n                /* \"#utility.yul\":7470:7486   */\n              add\n                /* \"#utility.yul\":7463:7486   */\n              swap1\n              pop\n                /* \"#utility.yul\":7175:7492   */\n              swap4\n              swap3\n              pop\n              pop\n              pop\n              jump\t// out\n                /* \"#utility.yul\":7498:7793   */\n            tag_37:\n                /* \"#utility.yul\":7640:7643   */\n              0x00\n                /* \"#utility.yul\":7662:7767   */\n              tag_169\n                /* \"#utility.yul\":7763:7766   */\n              dup3\n                /* \"#utility.yul\":7754:7760   */\n              dup5\n                /* \"#utility.yul\":7746:7752   */\n              dup7\n                /* \"#utility.yul\":7662:7767   */\n              tag_81\n              jump\t// in\n            tag_169:\n                /* \"#utility.yul\":7655:7767   */\n              swap2\n              pop\n                /* \"#utility.yul\":7784:7787   */\n              dup2\n                /* \"#utility.yul\":7777:7787   */\n              swap1\n              pop\n                /* \"#utility.yul\":7498:7793   */\n              swap4\n              swap3\n              pop\n              pop\n              pop\n              jump\t// out\n                /* \"#utility.yul\":7799:7979   */\n            tag_82:\n                /* \"#utility.yul\":7847:7924   */\n              0x4e487b7100000000000000000000000000000000000000000000000000000000\n                /* \"#utility.yul\":7844:7845   */\n              0x00\n                /* \"#utility.yul\":7837:7925   */\n              mstore\n                /* \"#utility.yul\":7944:7948   */\n              0x22\n                /* \"#utility.yul\":7941:7942   */\n              0x04\n                /* \"#utility.yul\":7934:7949   */\n              mstore\n                /* \"#utility.yul\":7968:7972   */\n              0x24\n                /* \"#utility.yul\":7965:7966   */\n              0x00\n                /* \"#utility.yul\":7958:7973   */\n              revert\n                /* \"#utility.yul\":7985:8305   */\n            tag_41:\n                /* \"#utility.yul\":8029:8035   */\n              0x00\n                /* \"#utility.yul\":8066:8067   */\n              0x02\n                /* \"#utility.yul\":8060:8064   */\n              dup3\n                /* \"#utility.yul\":8056:8068   */\n              div\n                /* \"#utility.yul\":8046:8068   */\n              swap1\n              pop\n                /* \"#utility.yul\":8113:8114   */\n              0x01\n                /* \"#utility.yul\":8107:8111   */\n              dup3\n                /* \"#utility.yul\":8103:8115   */\n              and\n                /* \"#utility.yul\":8134:8152   */\n              dup1\n                /* \"#utility.yul\":8124:8205   */\n              tag_172\n              jumpi\n                /* \"#utility.yul\":8190:8194   */\n              0x7f\n                /* \"#utility.yul\":8182:8188   */\n              dup3\n                /* \"#utility.yul\":8178:8195   */\n              and\n                /* \"#utility.yul\":8168:8195   */\n              swap2\n              pop\n                /* \"#utility.yul\":8124:8205   */\n            tag_172:\n                /* \"#utility.yul\":8252:8254   */\n              0x20\n                /* \"#utility.yul\":8244:8250   */\n              dup3\n                /* \"#utility.yul\":8241:8255   */\n              lt\n                /* \"#utility.yul\":8221:8239   */\n              dup2\n                /* \"#utility.yul\":8218:8256   */\n              eq\n                /* \"#utility.yul\":8215:8299   */\n              iszero\n              tag_173\n              jumpi\n                /* \"#utility.yul\":8271:8289   */\n              tag_174\n              tag_82\n              jump\t// in\n            tag_174:\n                /* \"#utility.yul\":8215:8299   */\n            tag_173:\n                /* \"#utility.yul\":8036:8305   */\n              pop\n                /* \"#utility.yul\":7985:8305   */\n              swap2\n              swap1\n              pop\n              jump\t// out\n\n            auxdata: 0xa2646970667358221220ee16ff80796078d7fad0b41eca9c2eaad2f412ab6705b9ac8fe2e03caa8d677964736f6c63430008080033\n        }\n    }\n\n    auxdata: 0xa26469706673582212203b0f3214bf0aa1ba1ca22511c6c794ca32b75cbdeb44db68ad40d149e11ba6c064736f6c63430008080033\n}\n",
				"bytecode": {
					"linkReferences": {},
					"object": "608060405234801561001057600080fd5b50610b29806100206000396000f3fe608060405234801561001057600080fd5b50600436106100415760003560e01c80631563700f146100465780631dda65411461006257806364591bf11461006c575b600080fd5b610060600480360381019061005b91906101ba565b61009c565b005b61006a6100a0565b005b610086600480360381019061008191906101fa565b610133565b60405161009391906102a6565b60405180910390f35b5050565b60006040516100ae90610172565b604051809103906000f0801580156100ca573d6000803e3d6000fd5b5090506000819080600181540180825580915050600190039060005260206000200160009091909190916101000a81548173ffffffffffffffffffffffffffffffffffffffff021916908373ffffffffffffffffffffffffffffffffffffffff16021790555050565b6000818154811061014357600080fd5b906000526020600020016000915054906101000a900473ffffffffffffffffffffffffffffffffffffffff1681565b610832806102c283390190565b600080fd5b6000819050919050565b61019781610184565b81146101a257600080fd5b50565b6000813590506101b48161018e565b92915050565b600080604083850312156101d1576101d061017f565b5b60006101df858286016101a5565b92505060206101f0858286016101a5565b9150509250929050565b6000602082840312156102105761020f61017f565b5b600061021e848285016101a5565b91505092915050565b600073ffffffffffffffffffffffffffffffffffffffff82169050919050565b6000819050919050565b600061026c61026761026284610227565b610247565b610227565b9050919050565b600061027e82610251565b9050919050565b600061029082610273565b9050919050565b6102a081610285565b82525050565b60006020820190506102bb6000830184610297565b9291505056fe608060405234801561001057600080fd5b50610812806100206000396000f3fe608060405234801561001057600080fd5b50600436106100575760003560e01c80632e64cec11461005c5780632fae4ffd1461007a5780636057361d146100aa5780636f760f41146100c65780639e7a13ad146100e2575b600080fd5b610064610113565b60405161007191906103a3565b60405180910390f35b610094600480360381019061008f9190610518565b61011c565b6040516100a191906103a3565b60405180910390f35b6100c460048036038101906100bf919061058d565b61014a565b005b6100e060048036038101906100db919061061a565b610154565b005b6100fc60048036038101906100f7919061058d565b61022b565b60405161010a929190610702565b60405180910390f35b60008054905090565b6002818051602081018201805184825260208301602085012081835280955050505050506000915090505481565b8060008190555050565b6001604051806040016040528083815260200185858080601f016020809104026020016040519081016040528093929190818152602001838380828437600081840152601f19601f8201169050808301925050505050505081525090806001815401808255809150506001900390600052602060002090600202016000909190919091506000820151816000015560208201518160010190805190602001906101fe9291906102e7565b5050508060028484604051610214929190610762565b908152602001604051809103902081905550505050565b6001818154811061023b57600080fd5b9060005260206000209060020201600091509050806000015490806001018054610264906107aa565b80601f0160208091040260200160405190810160405280929190818152602001828054610290906107aa565b80156102dd5780601f106102b2576101008083540402835291602001916102dd565b820191906000526020600020905b8154815290600101906020018083116102c057829003601f168201915b5050505050905082565b8280546102f3906107aa565b90600052602060002090601f016020900481019282610315576000855561035c565b82601f1061032e57805160ff191683800117855561035c565b8280016001018555821561035c579182015b8281111561035b578251825591602001919060010190610340565b5b509050610369919061036d565b5090565b5b8082111561038657600081600090555060010161036e565b5090565b6000819050919050565b61039d8161038a565b82525050565b60006020820190506103b86000830184610394565b92915050565b6000604051905090565b600080fd5b600080fd5b600080fd5b600080fd5b6000601f19601f8301169050919050565b7f4e487b7100000000000000000000000000000000000000000000000000000000600052604160045260246000fd5b610425826103dc565b810181811067ffffffffffffffff82111715610444576104436103ed565b5b80604052505050565b60006104576103be565b9050610463828261041c565b919050565b600067ffffffffffffffff821115610483576104826103ed565b5b61048c826103dc565b9050602081019050919050565b82818337600083830152505050565b60006104bb6104b684610468565b61044d565b9050828152602081018484840111156104d7576104d66103d7565b5b6104e2848285610499565b509392505050565b600082601f8301126104ff576104fe6103d2565b5b813561050f8482602086016104a8565b91505092915050565b60006020828403121561052e5761052d6103c8565b5b600082013567ffffffffffffffff81111561054c5761054b6103cd565b5b610558848285016104ea565b91505092915050565b61056a8161038a565b811461057557600080fd5b50565b60008135905061058781610561565b92915050565b6000602082840312156105a3576105a26103c8565b5b60006105b184828501610578565b91505092915050565b600080fd5b600080fd5b60008083601f8401126105da576105d96103d2565b5b8235905067ffffffffffffffff8111156105f7576105f66105ba565b5b602083019150836001820283011115610613576106126105bf565b5b9250929050565b600080600060408486031215610633576106326103c8565b5b600084013567ffffffffffffffff811115610651576106506103cd565b5b61065d868287016105c4565b9350935050602061067086828701610578565b9150509250925092565b600081519050919050565b600082825260208201905092915050565b60005b838110156106b4578082015181840152602081019050610699565b838111156106c3576000848401525b50505050565b60006106d48261067a565b6106de8185610685565b93506106ee818560208601610696565b6106f7816103dc565b840191505092915050565b60006040820190506107176000830185610394565b818103602083015261072981846106c9565b90509392505050565b600081905092915050565b60006107498385610732565b9350610756838584610499565b82840190509392505050565b600061076f82848661073d565b91508190509392505050565b7f4e487b7100000000000000000000000000000000000000000000000000000000600052602260045260246000fd5b600060028204905060018216806107c257607f821691505b602082108114156107d6576107d561077b565b5b5091905056fea2646970667358221220ee16ff80796078d7fad0b41eca9c2eaad2f412ab6705b9ac8fe2e03caa8d677964736f6c63430008080033a26469706673582212203b0f3214bf0aa1ba1ca22511c6c794ca32b75cbdeb44db68ad40d149e11ba6c064736f6c63430008080033",
					"opcodes": "PUSH1 0x80 PUSH1 0x40 MSTORE CALLVALUE DUP1 ISZERO PUSH2 0x10 JUMPI PUSH1 0x0 DUP1 REVERT JUMPDEST POP PUSH2 0xB29 DUP1 PUSH2 0x20 PUSH1 0x0 CODECOPY PUSH1 0x0 RETURN INVALID PUSH1 0x80 PUSH1 0x40 MSTORE CALLVALUE DUP1 ISZERO PUSH2 0x10 JUMPI PUSH1 0x0 DUP1 REVERT JUMPDEST POP PUSH1 0x4 CALLDATASIZE LT PUSH2 0x41 JUMPI PUSH1 0x0 CALLDATALOAD PUSH1 0xE0 SHR DUP1 PUSH4 0x1563700F EQ PUSH2 0x46 JUMPI DUP1 PUSH4 0x1DDA6541 EQ PUSH2 0x62 JUMPI DUP1 PUSH4 0x64591BF1 EQ PUSH2 0x6C JUMPI JUMPDEST PUSH1 0x0 DUP1 REVERT JUMPDEST PUSH2 0x60 PUSH1 0x4 DUP1 CALLDATASIZE SUB DUP2 ADD SWAP1 PUSH2 0x5B SWAP2 SWAP1 PUSH2 0x1BA JUMP JUMPDEST PUSH2 0x9C JUMP JUMPDEST STOP JUMPDEST PUSH2 0x6A PUSH2 0xA0 JUMP JUMPDEST STOP JUMPDEST PUSH2 0x86 PUSH1 0x4 DUP1 CALLDATASIZE SUB DUP2 ADD SWAP1 PUSH2 0x81 SWAP2 SWAP1 PUSH2 0x1FA JUMP JUMPDEST PUSH2 0x133 JUMP JUMPDEST PUSH1 0x40 MLOAD PUSH2 0x93 SWAP2 SWAP1 PUSH2 0x2A6 JUMP JUMPDEST PUSH1 0x40 MLOAD DUP1 SWAP2 SUB SWAP1 RETURN JUMPDEST POP POP JUMP JUMPDEST PUSH1 0x0 PUSH1 0x40 MLOAD PUSH2 0xAE SWAP1 PUSH2 0x172 JUMP JUMPDEST PUSH1 0x40 MLOAD DUP1 SWAP2 SUB SWAP1 PUSH1 0x0 CREATE DUP1 ISZERO DUP1 ISZERO PUSH2 0xCA JUMPI RETURNDATASIZE PUSH1 0x0 DUP1 RETURNDATACOPY RETURNDATASIZE PUSH1 0x0 REVERT JUMPDEST POP SWAP1 POP PUSH1 0x0 DUP2 SWAP1 DUP1 PUSH1 0x1 DUP2 SLOAD ADD DUP1 DUP3 SSTORE DUP1 SWAP2 POP POP PUSH1 0x1 SWAP1 SUB SWAP1 PUSH1 0x0 MSTORE PUSH1 0x20 PUSH1 0x0 KECCAK256 ADD PUSH1 0x0 SWAP1 SWAP2 SWAP1 SWAP2 SWAP1 SWAP2 PUSH2 0x100 EXP DUP2 SLOAD DUP2 PUSH20 0xFFFFFFFFFFFFFFFFFFFFFFFFFFFFFFFFFFFFFFFF MUL NOT AND SWAP1 DUP4 PUSH20 0xFFFFFFFFFFFFFFFFFFFFFFFFFFFFFFFFFFFFFFFF AND MUL OR SWAP1 SSTORE POP POP JUMP JUMPDEST PUSH1 0x0 DUP2 DUP2 SLOAD DUP2 LT PUSH2 0x143 JUMPI PUSH1 0x0 DUP1 REVERT JUMPDEST SWAP1 PUSH1 0x0 MSTORE PUSH1 0x20 PUSH1 0x0 KECCAK256 ADD PUSH1 0x0 SWAP2 POP SLOAD SWAP1 PUSH2 0x100 EXP SWAP1 DIV PUSH20 0xFFFFFFFFFFFFFFFFFFFFFFFFFFFFFFFFFFFFFFFF AND DUP2 JUMP JUMPDEST PUSH2 0x832 DUP1 PUSH2 0x2C2 DUP4 CODECOPY ADD SWAP1 JUMP JUMPDEST PUSH1 0x0 DUP1 REVERT JUMPDEST PUSH1 0x0 DUP2 SWAP1 POP SWAP2 SWAP1 POP JUMP JUMPDEST PUSH2 0x197 DUP2 PUSH2 0x184 JUMP JUMPDEST DUP2 EQ PUSH2 0x1A2 JUMPI PUSH1 0x0 DUP1 REVERT JUMPDEST POP JUMP JUMPDEST PUSH1 0x0 DUP2 CALLDATALOAD SWAP1 POP PUSH2 0x1B4 DUP2 PUSH2 0x18E JUMP JUMPDEST SWAP3 SWAP2 POP POP JUMP JUMPDEST PUSH1 0x0 DUP1 PUSH1 0x40 DUP4 DUP6 SUB SLT ISZERO PUSH2 0x1D1 JUMPI PUSH2 0x1D0 PUSH2 0x17F JUMP JUMPDEST JUMPDEST PUSH1 0x0 PUSH2 0x1DF DUP6 DUP3 DUP7 ADD PUSH2 0x1A5 JUMP JUMPDEST SWAP3 POP POP PUSH1 0x20 PUSH2 0x1F0 DUP6 DUP3 DUP7 ADD PUSH2 0x1A5 JUMP JUMPDEST SWAP2 POP POP SWAP3 POP SWAP3 SWAP1 POP JUMP JUMPDEST PUSH1 0x0 PUSH1 0x20 DUP3 DUP5 SUB SLT ISZERO PUSH2 0x210 JUMPI PUSH2 0x20F PUSH2 0x17F JUMP JUMPDEST JUMPDEST PUSH1 0x0 PUSH2 0x21E DUP5 DUP3 DUP6 ADD PUSH2 0x1A5 JUMP JUMPDEST SWAP2 POP POP SWAP3 SWAP2 POP POP JUMP JUMPDEST PUSH1 0x0 PUSH20 0xFFFFFFFFFFFFFFFFFFFFFFFFFFFFFFFFFFFFFFFF DUP3 AND SWAP1 POP SWAP2 SWAP1 POP JUMP JUMPDEST PUSH1 0x0 DUP2 SWAP1 POP SWAP2 SWAP1 POP JUMP JUMPDEST PUSH1 0x0 PUSH2 0x26C PUSH2 0x267 PUSH2 0x262 DUP5 PUSH2 0x227 JUMP JUMPDEST PUSH2 0x247 JUMP JUMPDEST PUSH2 0x227 JUMP JUMPDEST SWAP1 POP SWAP2 SWAP1 POP JUMP JUMPDEST PUSH1 0x0 PUSH2 0x27E DUP3 PUSH2 0x251 JUMP JUMPDEST SWAP1 POP SWAP2 SWAP1 POP JUMP JUMPDEST PUSH1 0x0 PUSH2 0x290 DUP3 PUSH2 0x273 JUMP JUMPDEST SWAP1 POP SWAP2 SWAP1 POP JUMP JUMPDEST PUSH2 0x2A0 DUP2 PUSH2 0x285 JUMP JUMPDEST DUP3 MSTORE POP POP JUMP JUMPDEST PUSH1 0x0 PUSH1 0x20 DUP3 ADD SWAP1 POP PUSH2 0x2BB PUSH1 0x0 DUP4 ADD DUP5 PUSH2 0x297 JUMP JUMPDEST SWAP3 SWAP2 POP POP JUMP INVALID PUSH1 0x80 PUSH1 0x40 MSTORE CALLVALUE DUP1 ISZERO PUSH2 0x10 JUMPI PUSH1 0x0 DUP1 REVERT JUMPDEST POP PUSH2 0x812 DUP1 PUSH2 0x20 PUSH1 0x0 CODECOPY PUSH1 0x0 RETURN INVALID PUSH1 0x80 PUSH1 0x40 MSTORE CALLVALUE DUP1 ISZERO PUSH2 0x10 JUMPI PUSH1 0x0 DUP1 REVERT JUMPDEST POP PUSH1 0x4 CALLDATASIZE LT PUSH2 0x57 JUMPI PUSH1 0x0 CALLDATALOAD PUSH1 0xE0 SHR DUP1 PUSH4 0x2E64CEC1 EQ PUSH2 0x5C JUMPI DUP1 PUSH4 0x2FAE4FFD EQ PUSH2 0x7A JUMPI DUP1 PUSH4 0x6057361D EQ PUSH2 0xAA JUMPI DUP1 PUSH4 0x6F760F41 EQ PUSH2 0xC6 JUMPI DUP1 PUSH4 0x9E7A13AD EQ PUSH2 0xE2 JUMPI JUMPDEST PUSH1 0x0 DUP1 REVERT JUMPDEST PUSH2 0x64 PUSH2 0x113 JUMP JUMPDEST PUSH1 0x40 MLOAD PUSH2 0x71 SWAP2 SWAP1 PUSH2 0x3A3 JUMP JUMPDEST PUSH1 0x40 MLOAD DUP1 SWAP2 SUB SWAP1 RETURN JUMPDEST PUSH2 0x94 PUSH1 0x4 DUP1 CALLDATASIZE SUB DUP2 ADD SWAP1 PUSH2 0x8F SWAP2 SWAP1 PUSH2 0x518 JUMP JUMPDEST PUSH2 0x11C JUMP JUMPDEST PUSH1 0x40 MLOAD PUSH2 0xA1 SWAP2 SWAP1 PUSH2 0x3A3 JUMP JUMPDEST PUSH1 0x40 MLOAD DUP1 SWAP2 SUB SWAP1 RETURN JUMPDEST PUSH2 0xC4 PUSH1 0x4 DUP1 CALLDATASIZE SUB DUP2 ADD SWAP1 PUSH2 0xBF SWAP2 SWAP1 PUSH2 0x58D JUMP JUMPDEST PUSH2 0x14A JUMP JUMPDEST STOP JUMPDEST PUSH2 0xE0 PUSH1 0x4 DUP1 CALLDATASIZE SUB DUP2 ADD SWAP1 PUSH2 0xDB SWAP2 SWAP1 PUSH2 0x61A JUMP JUMPDEST PUSH2 0x154 JUMP JUMPDEST STOP JUMPDEST PUSH2 0xFC PUSH1 0x4 DUP1 CALLDATASIZE SUB DUP2 ADD SWAP1 PUSH2 0xF7 SWAP2 SWAP1 PUSH2 0x58D JUMP JUMPDEST PUSH2 0x22B JUMP JUMPDEST PUSH1 0x40 MLOAD PUSH2 0x10A SWAP3 SWAP2 SWAP1 PUSH2 0x702 JUMP JUMPDEST PUSH1 0x40 MLOAD DUP1 SWAP2 SUB SWAP1 RETURN JUMPDEST PUSH1 0x0 DUP1 SLOAD SWAP1 POP SWAP1 JUMP JUMPDEST PUSH1 0x2 DUP2 DUP1 MLOAD PUSH1 0x20 DUP2 ADD DUP3 ADD DUP1 MLOAD DUP5 DUP3 MSTORE PUSH1 0x20 DUP4 ADD PUSH1 0x20 DUP6 ADD KECCAK256 DUP2 DUP4 MSTORE DUP1 SWAP6 POP POP POP POP POP POP PUSH1 0x0 SWAP2 POP SWAP1 POP SLOAD DUP2 JUMP JUMPDEST DUP1 PUSH1 0x0 DUP2 SWAP1 SSTORE POP POP JUMP JUMPDEST PUSH1 0x1 PUSH1 0x40 MLOAD DUP1 PUSH1 0x40 ADD PUSH1 0x40 MSTORE DUP1 DUP4 DUP2 MSTORE PUSH1 0x20 ADD DUP6 DUP6 DUP1 DUP1 PUSH1 0x1F ADD PUSH1 0x20 DUP1 SWAP2 DIV MUL PUSH1 0x20 ADD PUSH1 0x40 MLOAD SWAP1 DUP2 ADD PUSH1 0x40 MSTORE DUP1 SWAP4 SWAP3 SWAP2 SWAP1 DUP2 DUP2 MSTORE PUSH1 0x20 ADD DUP4 DUP4 DUP1 DUP3 DUP5 CALLDATACOPY PUSH1 0x0 DUP2 DUP5 ADD MSTORE PUSH1 0x1F NOT PUSH1 0x1F DUP3 ADD AND SWAP1 POP DUP1 DUP4 ADD SWAP3 POP POP POP POP POP POP POP DUP2 MSTORE POP SWAP1 DUP1 PUSH1 0x1 DUP2 SLOAD ADD DUP1 DUP3 SSTORE DUP1 SWAP2 POP POP PUSH1 0x1 SWAP1 SUB SWAP1 PUSH1 0x0 MSTORE PUSH1 0x20 PUSH1 0x0 KECCAK256 SWAP1 PUSH1 0x2 MUL ADD PUSH1 0x0 SWAP1 SWAP2 SWAP1 SWAP2 SWAP1 SWAP2 POP PUSH1 0x0 DUP3 ADD MLOAD DUP2 PUSH1 0x0 ADD SSTORE PUSH1 0x20 DUP3 ADD MLOAD DUP2 PUSH1 0x1 ADD SWAP1 DUP1 MLOAD SWAP1 PUSH1 0x20 ADD SWAP1 PUSH2 0x1FE SWAP3 SWAP2 SWAP1 PUSH2 0x2E7 JUMP JUMPDEST POP POP POP DUP1 PUSH1 0x2 DUP5 DUP5 PUSH1 0x40 MLOAD PUSH2 0x214 SWAP3 SWAP2 SWAP1 PUSH2 0x762 JUMP JUMPDEST SWAP1 DUP2 MSTORE PUSH1 0x20 ADD PUSH1 0x40 MLOAD DUP1 SWAP2 SUB SWAP1 KECCAK256 DUP2 SWAP1 SSTORE POP POP POP POP JUMP JUMPDEST PUSH1 0x1 DUP2 DUP2 SLOAD DUP2 LT PUSH2 0x23B JUMPI PUSH1 0x0 DUP1 REVERT JUMPDEST SWAP1 PUSH1 0x0 MSTORE PUSH1 0x20 PUSH1 0x0 KECCAK256 SWAP1 PUSH1 0x2 MUL ADD PUSH1 0x0 SWAP2 POP SWAP1 POP DUP1 PUSH1 0x0 ADD SLOAD SWAP1 DUP1 PUSH1 0x1 ADD DUP1 SLOAD PUSH2 0x264 SWAP1 PUSH2 0x7AA JUMP JUMPDEST DUP1 PUSH1 0x1F ADD PUSH1 0x20 DUP1 SWAP2 DIV MUL PUSH1 0x20 ADD PUSH1 0x40 MLOAD SWAP1 DUP2 ADD PUSH1 0x40 MSTORE DUP1 SWAP3 SWAP2 SWAP1 DUP2 DUP2 MSTORE PUSH1 0x20 ADD DUP3 DUP1 SLOAD PUSH2 0x290 SWAP1 PUSH2 0x7AA JUMP JUMPDEST DUP1 ISZERO PUSH2 0x2DD JUMPI DUP1 PUSH1 0x1F LT PUSH2 0x2B2 JUMPI PUSH2 0x100 DUP1 DUP4 SLOAD DIV MUL DUP4 MSTORE SWAP2 PUSH1 0x20 ADD SWAP2 PUSH2 0x2DD JUMP JUMPDEST DUP3 ADD SWAP2 SWAP1 PUSH1 0x0 MSTORE PUSH1 0x20 PUSH1 0x0 KECCAK256 SWAP1 JUMPDEST DUP2 SLOAD DUP2 MSTORE SWAP1 PUSH1 0x1 ADD SWAP1 PUSH1 0x20 ADD DUP1 DUP4 GT PUSH2 0x2C0 JUMPI DUP3 SWAP1 SUB PUSH1 0x1F AND DUP3 ADD SWAP2 JUMPDEST POP POP POP POP POP SWAP1 POP DUP3 JUMP JUMPDEST DUP3 DUP1 SLOAD PUSH2 0x2F3 SWAP1 PUSH2 0x7AA JUMP JUMPDEST SWAP1 PUSH1 0x0 MSTORE PUSH1 0x20 PUSH1 0x0 KECCAK256 SWAP1 PUSH1 0x1F ADD PUSH1 0x20 SWAP1 DIV DUP2 ADD SWAP3 DUP3 PUSH2 0x315 JUMPI PUSH1 0x0 DUP6 SSTORE PUSH2 0x35C JUMP JUMPDEST DUP3 PUSH1 0x1F LT PUSH2 0x32E JUMPI DUP1 MLOAD PUSH1 0xFF NOT AND DUP4 DUP1 ADD OR DUP6 SSTORE PUSH2 0x35C JUMP JUMPDEST DUP3 DUP1 ADD PUSH1 0x1 ADD DUP6 SSTORE DUP3 ISZERO PUSH2 0x35C JUMPI SWAP2 DUP3 ADD JUMPDEST DUP3 DUP2 GT ISZERO PUSH2 0x35B JUMPI DUP3 MLOAD DUP3 SSTORE SWAP2 PUSH1 0x20 ADD SWAP2 SWAP1 PUSH1 0x1 ADD SWAP1 PUSH2 0x340 JUMP JUMPDEST JUMPDEST POP SWAP1 POP PUSH2 0x369 SWAP2 SWAP1 PUSH2 0x36D JUMP JUMPDEST POP SWAP1 JUMP JUMPDEST JUMPDEST DUP1 DUP3 GT ISZERO PUSH2 0x386 JUMPI PUSH1 0x0 DUP2 PUSH1 0x0 SWAP1 SSTORE POP PUSH1 0x1 ADD PUSH2 0x36E JUMP JUMPDEST POP SWAP1 JUMP JUMPDEST PUSH1 0x0 DUP2 SWAP1 POP SWAP2 SWAP1 POP JUMP JUMPDEST PUSH2 0x39D DUP2 PUSH2 0x38A JUMP JUMPDEST DUP3 MSTORE POP POP JUMP JUMPDEST PUSH1 0x0 PUSH1 0x20 DUP3 ADD SWAP1 POP PUSH2 0x3B8 PUSH1 0x0 DUP4 ADD DUP5 PUSH2 0x394 JUMP JUMPDEST SWAP3 SWAP2 POP POP JUMP JUMPDEST PUSH1 0x0 PUSH1 0x40 MLOAD SWAP1 POP SWAP1 JUMP JUMPDEST PUSH1 0x0 DUP1 REVERT JUMPDEST PUSH1 0x0 DUP1 REVERT JUMPDEST PUSH1 0x0 DUP1 REVERT JUMPDEST PUSH1 0x0 DUP1 REVERT JUMPDEST PUSH1 0x0 PUSH1 0x1F NOT PUSH1 0x1F DUP4 ADD AND SWAP1 POP SWAP2 SWAP1 POP JUMP JUMPDEST PUSH32 0x4E487B7100000000000000000000000000000000000000000000000000000000 PUSH1 0x0 MSTORE PUSH1 0x41 PUSH1 0x4 MSTORE PUSH1 0x24 PUSH1 0x0 REVERT JUMPDEST PUSH2 0x425 DUP3 PUSH2 0x3DC JUMP JUMPDEST DUP2 ADD DUP2 DUP2 LT PUSH8 0xFFFFFFFFFFFFFFFF DUP3 GT OR ISZERO PUSH2 0x444 JUMPI PUSH2 0x443 PUSH2 0x3ED JUMP JUMPDEST JUMPDEST DUP1 PUSH1 0x40 MSTORE POP POP POP JUMP JUMPDEST PUSH1 0x0 PUSH2 0x457 PUSH2 0x3BE JUMP JUMPDEST SWAP1 POP PUSH2 0x463 DUP3 DUP3 PUSH2 0x41C JUMP JUMPDEST SWAP2 SWAP1 POP JUMP JUMPDEST PUSH1 0x0 PUSH8 0xFFFFFFFFFFFFFFFF DUP3 GT ISZERO PUSH2 0x483 JUMPI PUSH2 0x482 PUSH2 0x3ED JUMP JUMPDEST JUMPDEST PUSH2 0x48C DUP3 PUSH2 0x3DC JUMP JUMPDEST SWAP1 POP PUSH1 0x20 DUP2 ADD SWAP1 POP SWAP2 SWAP1 POP JUMP JUMPDEST DUP3 DUP2 DUP4 CALLDATACOPY PUSH1 0x0 DUP4 DUP4 ADD MSTORE POP POP POP JUMP JUMPDEST PUSH1 0x0 PUSH2 0x4BB PUSH2 0x4B6 DUP5 PUSH2 0x468 JUMP JUMPDEST PUSH2 0x44D JUMP JUMPDEST SWAP1 POP DUP3 DUP2 MSTORE PUSH1 0x20 DUP2 ADD DUP5 DUP5 DUP5 ADD GT ISZERO PUSH2 0x4D7 JUMPI PUSH2 0x4D6 PUSH2 0x3D7 JUMP JUMPDEST JUMPDEST PUSH2 0x4E2 DUP5 DUP3 DUP6 PUSH2 0x499 JUMP JUMPDEST POP SWAP4 SWAP3 POP POP POP JUMP JUMPDEST PUSH1 0x0 DUP3 PUSH1 0x1F DUP4 ADD SLT PUSH2 0x4FF JUMPI PUSH2 0x4FE PUSH2 0x3D2 JUMP JUMPDEST JUMPDEST DUP2 CALLDATALOAD PUSH2 0x50F DUP5 DUP3 PUSH1 0x20 DUP7 ADD PUSH2 0x4A8 JUMP JUMPDEST SWAP2 POP POP SWAP3 SWAP2 POP POP JUMP JUMPDEST PUSH1 0x0 PUSH1 0x20 DUP3 DUP5 SUB SLT ISZERO PUSH2 0x52E JUMPI PUSH2 0x52D PUSH2 0x3C8 JUMP JUMPDEST JUMPDEST PUSH1 0x0 DUP3 ADD CALLDATALOAD PUSH8 0xFFFFFFFFFFFFFFFF DUP2 GT ISZERO PUSH2 0x54C JUMPI PUSH2 0x54B PUSH2 0x3CD JUMP JUMPDEST JUMPDEST PUSH2 0x558 DUP5 DUP3 DUP6 ADD PUSH2 0x4EA JUMP JUMPDEST SWAP2 POP POP SWAP3 SWAP2 POP POP JUMP JUMPDEST PUSH2 0x56A DUP2 PUSH2 0x38A JUMP JUMPDEST DUP2 EQ PUSH2 0x575 JUMPI PUSH1 0x0 DUP1 REVERT JUMPDEST POP JUMP JUMPDEST PUSH1 0x0 DUP2 CALLDATALOAD SWAP1 POP PUSH2 0x587 DUP2 PUSH2 0x561 JUMP JUMPDEST SWAP3 SWAP2 POP POP JUMP JUMPDEST PUSH1 0x0 PUSH1 0x20 DUP3 DUP5 SUB SLT ISZERO PUSH2 0x5A3 JUMPI PUSH2 0x5A2 PUSH2 0x3C8 JUMP JUMPDEST JUMPDEST PUSH1 0x0 PUSH2 0x5B1 DUP5 DUP3 DUP6 ADD PUSH2 0x578 JUMP JUMPDEST SWAP2 POP POP SWAP3 SWAP2 POP POP JUMP JUMPDEST PUSH1 0x0 DUP1 REVERT JUMPDEST PUSH1 0x0 DUP1 REVERT JUMPDEST PUSH1 0x0 DUP1 DUP4 PUSH1 0x1F DUP5 ADD SLT PUSH2 0x5DA JUMPI PUSH2 0x5D9 PUSH2 0x3D2 JUMP JUMPDEST JUMPDEST DUP3 CALLDATALOAD SWAP1 POP PUSH8 0xFFFFFFFFFFFFFFFF DUP2 GT ISZERO PUSH2 0x5F7 JUMPI PUSH2 0x5F6 PUSH2 0x5BA JUMP JUMPDEST JUMPDEST PUSH1 0x20 DUP4 ADD SWAP2 POP DUP4 PUSH1 0x1 DUP3 MUL DUP4 ADD GT ISZERO PUSH2 0x613 JUMPI PUSH2 0x612 PUSH2 0x5BF JUMP JUMPDEST JUMPDEST SWAP3 POP SWAP3 SWAP1 POP JUMP JUMPDEST PUSH1 0x0 DUP1 PUSH1 0x0 PUSH1 0x40 DUP5 DUP7 SUB SLT ISZERO PUSH2 0x633 JUMPI PUSH2 0x632 PUSH2 0x3C8 JUMP JUMPDEST JUMPDEST PUSH1 0x0 DUP5 ADD CALLDATALOAD PUSH8 0xFFFFFFFFFFFFFFFF DUP2 GT ISZERO PUSH2 0x651 JUMPI PUSH2 0x650 PUSH2 0x3CD JUMP JUMPDEST JUMPDEST PUSH2 0x65D DUP7 DUP3 DUP8 ADD PUSH2 0x5C4 JUMP JUMPDEST SWAP4 POP SWAP4 POP POP PUSH1 0x20 PUSH2 0x670 DUP7 DUP3 DUP8 ADD PUSH2 0x578 JUMP JUMPDEST SWAP2 POP POP SWAP3 POP SWAP3 POP SWAP3 JUMP JUMPDEST PUSH1 0x0 DUP2 MLOAD SWAP1 POP SWAP2 SWAP1 POP JUMP JUMPDEST PUSH1 0x0 DUP3 DUP3 MSTORE PUSH1 0x20 DUP3 ADD SWAP1 POP SWAP3 SWAP2 POP POP JUMP JUMPDEST PUSH1 0x0 JUMPDEST DUP4 DUP2 LT ISZERO PUSH2 0x6B4 JUMPI DUP1 DUP3 ADD MLOAD DUP2 DUP5 ADD MSTORE PUSH1 0x20 DUP2 ADD SWAP1 POP PUSH2 0x699 JUMP JUMPDEST DUP4 DUP2 GT ISZERO PUSH2 0x6C3 JUMPI PUSH1 0x0 DUP5 DUP5 ADD MSTORE JUMPDEST POP POP POP POP JUMP JUMPDEST PUSH1 0x0 PUSH2 0x6D4 DUP3 PUSH2 0x67A JUMP JUMPDEST PUSH2 0x6DE DUP2 DUP6 PUSH2 0x685 JUMP JUMPDEST SWAP4 POP PUSH2 0x6EE DUP2 DUP6 PUSH1 0x20 DUP7 ADD PUSH2 0x696 JUMP JUMPDEST PUSH2 0x6F7 DUP2 PUSH2 0x3DC JUMP JUMPDEST DUP5 ADD SWAP2 POP POP SWAP3 SWAP2 POP POP JUMP JUMPDEST PUSH1 0x0 PUSH1 0x40 DUP3 ADD SWAP1 POP PUSH2 0x717 PUSH1 0x0 DUP4 ADD DUP6 PUSH2 0x394 JUMP JUMPDEST DUP2 DUP2 SUB PUSH1 0x20 DUP4 ADD MSTORE PUSH2 0x729 DUP2 DUP5 PUSH2 0x6C9 JUMP JUMPDEST SWAP1 POP SWAP4 SWAP3 POP POP POP JUMP JUMPDEST PUSH1 0x0 DUP2 SWAP1 POP SWAP3 SWAP2 POP POP JUMP JUMPDEST PUSH1 0x0 PUSH2 0x749 DUP4 DUP6 PUSH2 0x732 JUMP JUMPDEST SWAP4 POP PUSH2 0x756 DUP4 DUP6 DUP5 PUSH2 0x499 JUMP JUMPDEST DUP3 DUP5 ADD SWAP1 POP SWAP4 SWAP3 POP POP POP JUMP JUMPDEST PUSH1 0x0 PUSH2 0x76F DUP3 DUP5 DUP7 PUSH2 0x73D JUMP JUMPDEST SWAP2 POP DUP2 SWAP1 POP SWAP4 SWAP3 POP POP POP JUMP JUMPDEST PUSH32 0x4E487B7100000000000000000000000000000000000000000000000000000000 PUSH1 0x0 MSTORE PUSH1 0x22 PUSH1 0x4 MSTORE PUSH1 0x24 PUSH1 0x0 REVERT JUMPDEST PUSH1 0x0 PUSH1 0x2 DUP3 DIV SWAP1 POP PUSH1 0x1 DUP3 AND DUP1 PUSH2 0x7C2 JUMPI PUSH1 0x7F DUP3 AND SWAP2 POP JUMPDEST PUSH1 0x20 DUP3 LT DUP2 EQ ISZERO PUSH2 0x7D6 JUMPI PUSH2 0x7D5 PUSH2 0x77B JUMP JUMPDEST JUMPDEST POP SWAP2 SWAP1 POP JUMP INVALID LOG2 PUSH5 0x6970667358 0x22 SLT KECCAK256 0xEE AND SELFDESTRUCT DUP1 PUSH26 0x6078D7FAD0B41ECA9C2EAAD2F412AB6705B9AC8FE2E03CAA8D67 PUSH26 0x64736F6C63430008080033A26469706673582212203B0F3214BF EXP LOG1 0xBA SHR LOG2 0x25 GT 0xC6 0xC7 SWAP5 0xCA ORIGIN 0xB7 0x5C 0xBD 0xEB DIFFICULTY 0xDB PUSH9 0xAD40D149E11BA6C064 PUSH20 0x6F6C634300080800330000000000000000000000 "
				},
				"gasEstimates": {
					"creation": {
						"codeDepositCost": "571400",
						"executionCost": "606",
						"totalCost": "572006"
					},
					"external": {
						"createSimpleStorageContract()": "infinite",
						"sfStore(uint256,uint256)": "infinite",
						"simpleStorageArray(uint256)": "infinite"
					}
				},
				"methodIdentifiers": {
					"createSimpleStorageContract()": "1dda6541",
					"sfStore(uint256,uint256)": "1563700f",
					"simpleStorageArray(uint256)": "64591bf1"
				}
			},
			"storageLayout": {
				"storage": [
					{
						"astId": 65,
						"contract": "contracts/StorageFactory.sol:StorageFactory",
						"label": "simpleStorageArray",
						"offset": 0,
						"slot": "0",
						"type": "t_array(t_contract(SimpleStorage)58)dyn_storage"
					}
				],
				"types": {
					"t_array(t_contract(SimpleStorage)58)dyn_storage": {
						"base": "t_contract(SimpleStorage)58",
						"encoding": "dynamic_array",
						"label": "contract SimpleStorage[]",
						"numberOfBytes": "32"
					},
					"t_contract(SimpleStorage)58": {
						"encoding": "inplace",
						"label": "contract SimpleStorage",
						"numberOfBytes": "20"
					}
				}
			},
			"userdoc": {
				"kind": "user",
				"methods": {},
				"version": 1
			}
		}
	}
}